:100000000C9434000C9451000C9451000C94510049
:100010000C9451000C9451000C9451000C9451001C
:100020000C9451000C9451000C9451000C9451000C
:100030000C9451000C9451000C9451000C945100FC
:100040000C94A5000C9451000C9451000C94510098
:100050000C9451000C9451000C9451000C945100DC
:100060000C9451000C94510011241FBECFEFD4E02A
:10007000DEBFCDBF11E0A0E0B1E0EEE7F1E002C0ED
:1000800005900D92A230B107D9F721E0A2E0B1E0CE
:1000900001C01D92A430B207E1F70E9453000C94F6
:1000A000BD000C94000084B1866084B98AB180667A
:1000B0008AB981E080936E00789483E085BD809159
:1000C0000201909103018E3F9105E9F580910001B5
:1000D00090910101019729F4299A2A988BB18F797F
:1000E0008BB98091000190910101029729F42A9A1D
:1000F00029988BB18F798BB9809100019091010182
:10010000039729F45D9A5E9885B1897F85B98091BE
:10011000000190910101049749F45E9A5D9885B1C0
:10012000897F85B91092010110920001109203019C
:10013000109202018091000190910101019690932B
:100140000101809300017894BACF1F920F920FB6ED
:100150000F9211248F939F9380910201909103013C
:1001600001969093030180930201F8949F918F91DF
:0E0170000F900FBE0F901F901895F894FFCFC0
:02017E0001007E
:00000001FF
