:100000000C9434000C9451000C9451000C94510049
:100010000C9451000C9451000C9451000C9451001C
:100020000C9451000C9451000C9451000C9451000C
:100030000C9451000C9451000C9451000C945100FC
:100040000C94C7000C9451000C9451000C94510076
:100050000C9451000C9451000C9451000C945100DC
:100060000C9451000C94510011241FBECFEFD4E02A
:10007000DEBFCDBF11E0A0E0B1E0E2ECF1E002C0F4
:1000800005900D92A430B107D9F721E0A4E0B1E0CA
:1000900001C01D92A630B207E1F70E9453000C94F4
:1000A000DF000C9400008AB1806F8AB981E08093F0
:1000B0006E00789485E085BD24E030E080910401F5
:1000C000909105010A9709F060C08091000190911C
:1000D00001010197A1F4809102019091030104971D
:1000E00029F4109203011092020109C080910201CB
:1000F00090910301019690930301809302018091F6
:100100000001909101010297A1F480910201909168
:100110000301892B29F4309303012093020109C0C4
:1001200080910201909103010197909303018093C4
:1001300002018091020190910301019721F45C9AE0
:100140008BB18F718BB9809102019091030102975D
:1001500021F45E9A8BB18F748BB9809102019091DA
:100160000301039721F45D9A8BB18F728BB9809153
:10017000020190910301049721F45F9A8BB18F786B
:100180008BB91092050110920401789497CF1F92B9
:100190000F920FB60F9211248F939F9380910401B9
:1001A0009091050101969093050180930401F894C4
:1001B0009F918F910F900FBE0F901F901895F894FC
:0201C000FFCF6F
:0401C2000100010037
:00000001FF
