S01C0000684272696467654D6963726F7374657070696E672E73726563EF
S11300000C9434000C9451000C9451000C94510045
S11300100C9451000C9451000C9451000C94510018
S11300200C9451000C9451000C9451000C94510008
S11300300C9451000C9478020C9451000C945100CF
S11300400C94EB010C9451000C9451000C9451004D
S11300500C9451000C9451000C9451000C945100D8
S11300600C9451000C94510011241FBECFEFD4E026
S1130070DEBFCDBF11E0A0E0B1E0E6ECF7E002C0E6
S113008005900D92A230B107D9F721E0A2E0B1E0CA
S113009001C01D92A431B207E1F70E9453000C94F1
S11300A0E1030C94000084B1866084B98AB180664F
S11300B08AB981EA84BD8093800081E080936E00D8
S11300C080936F00789485B5816085BDE1E8F0E0A8
S11300D080818260808300E010E02EEA32E440E018
S11300E050E062E872E4F894809102019091030177
S11300F08A3F91050CF46DC180910001909101013A
S1130100019709F540931001509311016093120176
S11301107093130110920C0110920D0110920E01B4
S113012010920F01109208011092090110920A0115
S113013010920B0110920401109205011092060115
S11301401092070139C18091000190910101029739
S113015009F54093100150931101609312017093BB
S1130160130110920C0110920D0110920E011092C5
S11301700F01409308015093090160930A017093A1
S11301800B011092040110920501109206011092C5
S1130190070112C18091000190910101039709F5B3
S11301A01092100110921101109212011092130179
S11301B010920C0110920D0110920E0110920F0179
S11301C0409308015093090160930A0170930B0155
S11301D01092040110920501109206011092070179
S11301E0EBC08091000190910101049709F51092F0
S11301F010011092110110921201109213014093F8
S11302000C0150930D0160930E0170930F01409304
S113021008015093090160930A0170930B01109235
S11302200401109205011092060110920701C4C046
S11302308091000190910101059709F51092100138
S113024010921101109212011092130140930C01AB
S113025050930D0160930E0170930F0110920801E9
S11302601092090110920A0110920B0110920401DC
S11302701092050110920601109207019DC0809111
S1130280000190910101069709F510921001109256
S11302901101109212011092130140930C0150931A
S11302A00D0160930E0170930F01109208011092DA
S11302B0090110920A0110920B014093040150931A
S11302C00501609306017093070176C080910001D7
S11302D090910101079709F51092100110921101F4
S11302E0109212011092130110920C0110920D0140
S11302F010920E0110920F01109208011092090140
S113030010920A0110920B014093040150930501CD
S113031060930601709307014FC080910001909192
S11303200101089729F5409310015093110160933E
S113033012017093130110920C0110920D0110928E
S11303400E0110920F0110920801109209011092EF
S11303500A0110920B01409304015093050160932C
S1130360060170930701109201011092000124C04C
S11303700093100110931101209312013093130183
S113038000930C0110930D0120930E0130930F0183
S1130390009308011093090120930A0130930B0183
S11303A00093040110930501209306013093070183
S11303B010920101109200011092030110920201A7
S11303C08091000190910101019690930101809325
S11303D00001789488CE1F920F920FB60F921124C9
S11303E02F933F934F935F936F937F938F939F9339
S11303F0AF93BF93EF93FF93809102019091030118
S11304000196909303018093020120E030E048ECD0
S113041052E460910401709105018091060190916C
S113042007010E94820220E030E04FE753E40E947B
S113043074030E94F40267BD20E030E048EC52E40B
S1130440609108017091090180910A0190910B015A
S11304500E94820220E030E04FE753E40E947403DC
S11304600E94F40268BD20E030E048EC52E4609160
S113047010017091110180911201909113010E9459
S1130480820220E030E04FE753E40E9474030E94AC
S1130490F402709389006093880020E030E048EC17
S11304A052E460910C0170910D0180910E019091C4
S11304B00F010E94820220E030E04FE753E40E94E3
S11304C074030E94F40270938B0060938A00FF917E
S11304D0EF91BF91AF919F918F917F916F915F91B8
S11304E04F913F912F910F900FBE0F901F90189531
S11304F01F920F920FB60F9211240F900FBE0F9000
S11305001F9018950E9496020C943A030E9433039C
S113051058F00E942C0340F029F45F3F29F00C941A
S1130520230351110C946E030C9429030E944B0372
S113053068F39923B1F3552391F3951B550BBB270E
S1130540AA2762177307840738F09F5F5F4F220F53
S1130550331F441FAA1FA9F335D00E2E3AF0E0E84A
S113056032D091505040E695001CCAF72BD0FE2F94
S113057029D0660F771F881FBB1F26173707480728
S1130580AB07B0E809F0BB0B802DBF01FF279358E0
S11305905F4F3AF09E3F510578F00C9423030C947E
S11305A06E035F3FE4F3983ED4F3869577956795A1
S11305B0B795F7959F5FC9F7880F911D9695879515
S11305C097F90895E1E0660F771F881FBB1F621734
S11305D073078407BA0720F0621B730B840BBA0BF2
S11305E0EE1F88F7E09508950E94530388F09F5703
S11305F098F0B92F9927B751B0F0E1F0660F771F43
S1130600881F991F1AF0BA95C9F714C0B13091F038
S11306100E946D03B1E008950C946D03672F782F49
S11306208827B85F39F0B93FCCF3869577956795FD
S1130630B395D9F73EF490958095709561957F4F69
S11306408F4F9F4F089597F99F6780E870E060E0AF
S113065008959FEF80EC089500240A941616170657
S113066018060906089500240A941216130614069F
S113067005060895092E0394000C11F4882352F002
S1130680BB0F40F4BF2B11F460FF04C06F5F7F4FBA
S11306908F4F9F4F089557FD9058440F551F59F0A1
S11306A05F3F71F04795880F97FB991F61F09F3F5B
S11306B079F087950895121613061406551FF2CF84
S11306C04695F1DF08C0161617061806991FF1CFD4
S11306D086957105610508940895E894BB276627FB
S11306E07727CB0197F908950E9487030C943A0366
S11306F00E942C0338F00E94330320F0952311F05C
S11307000C9423030C94290311240C946E030E946B
S11307104B0370F3959FC1F3950F50E0551F629FF3
S1130720F001729FBB27F00DB11D639FAA27F00D46
S1130730B11DAA1F649F6627B00DA11D661F829F6D
S11307402227B00DA11D621F739FB00DA11D621F52
S1130750839FA00D611D221F749F3327A00D611D6F
S1130760231F849F600D211D822F762F6A2F112451
S11307709F5750409AF0F1F088234AF0EE0FFF1F84
S1130780BB1F661F771F881F91505040A9F79E3FDB
S1130790510580F00C9423030C946E035F3FE4F343
S11307A0983ED4F3869577956795B795F795E79531
S11307B09F5FC1F7FE2B880F911D9695879597F93A
S10907C00895F894FFCF38
S10507C601002C
S9030000FC
