:100000000C9434000C9451000C9451000C94510049
:100010000C9451000C9451000C9451000C9451001C
:100020000C9451000C9451000C9451000C9451000C
:100030000C9451000C9451000C9451000C945100FC
:100040000C94CE000C9451000C9451000C9451006F
:100050000C9451000C9451000C9451000C945100DC
:100060000C9451000C94510011241FBECFEFD4E02A
:10007000DEBFCDBF11E0A0E0B1E0E0EDF1E002C0F5
:1000800005900D92A230B107D9F721E0A2E0B1E0CE
:1000900001C01D92A430B207E1F70E9453000C94F6
:1000A000E6000C9400008AB1806F8AB981E08093E9
:1000B0006E00789485E085BD8091020190910301E6
:1000C0004E9709F069C0809100019091010101975C
:1000D00021F45C9A8BB18F718BB980910001909162
:1000E0000101029731F48BB180658BB98BB18F75AB
:1000F0008BB98091000190910101039721F45E9AE0
:100100008BB18F748BB9809100019091010104979C
:1001100031F48BB180668BB98BB18F768BB98091BE
:10012000000190910101059721F45D9A8BB18F72C6
:100130008BB98091000190910101069731F48BB148
:10014000806A8BB98BB18F7A8BB9809100019091C5
:100150000101079721F45F9A8BB18F788BB9809159
:10016000000190910101089751F48BB180698BB91E
:100170008BB18F798BB9109201011092000110920E
:1001800003011092020180910001909101010196FA
:10019000909301018093000178948ECF1F920F926B
:1001A0000FB60F9211248F939F938091020190912B
:1001B000030101969093030180930201F8949F91AB
:1001C0008F910F900FBE0F901F901895F894FFCF4E
:0201D00001002C
:00000001FF
