:100000000C9434000C9446000C9446000C9446006A
:100010000C9446000C9446000C9446000C94460048
:100020000C9446000C9446000C9446000C94460038
:100030000C9446000C9446000C9446000C94460028
:100040000C9421010C9446000C9446000C9446003C
:100050000C9446000C9446000C9446000C94460008
:100060000C9446000C94460011241FBECFEFD4E040
:10007000DEBFCDBF21E0A0E0B1E001C01D92A23003
:10008000B207E1F70E94EC000C9439010C940000D7
:100090008130910531F464307105A4F56F5F7F4FB5
:1000A00007C0029729F46230710504F161507109AB
:1000B0006130710531F480E18BB98BB18F718BB9EF
:1000C00024C06230710531F480E48BB98BB18F7438
:1000D0008BB91BC06330710531F480E28BB98BB1F1
:1000E0008F728BB912C06430710541F480E88BB90E
:1000F0008BB18F788BB964E070E007C01BB861E00A
:1001000070E003C061E070E0D3CFCB01089581308F
:10011000910539F4683071050CF059C06F5F7F4F5D
:1001200008C0029731F4623071050CF443C061508D
:1001300071096130710529F45C9A8BB18F718BB9AB
:1001400049C06230710539F48BB180658BB98BB1D0
:100150008F758BB93FC06330710529F45E9A8BB1FE
:100160008F748BB937C06430710539F48BB18066F8
:100170008BB98BB18F768BB92DC06530710529F4A1
:100180005D9A8BB18F728BB925C06630710539F4D9
:100190008BB1806A8BB98BB18F7A8BB91BC06730FA
:1001A000710529F45F9A8BB18F788BB913C06830D1
:1001B000710549F48BB180698BB98BB18F798BB99B
:1001C00068E070E007C01BB861E070E003C061E068
:1001D00070E0AFCFCB010895CF93DF9300D000D074
:1001E000CDB7DEB71A82198281E090E09C838B83C1
:1001F00020988AB1806F8AB981E080936E007894EC
:1002000085E085BD80910001909101010A97B9F4C4
:10021000189B09C069817A818B819C810E9448006A
:100220009A83898308C069817A818B819C810E942D
:1002300087009A83898310920101109200017894BB
:10024000E1CF1F920F920FB60F9211248F939F93BD
:10025000809100019091010101969093010180939A
:100260000001F8949F918F910F900FBE0F901F90F7
:060270001895F894FFCF81
:00000001FF
