S014000068627269646765424C4443322E73726563F4
S11300000C9443000C9460000C9460000C94600009
S11300100C9460000C9460000C9460000C946000DC
S11300200C9460000C940C060C9460000C9460001A
S11300300C9460000C948D050C9460000C9460008A
S11300400C940E050C9460000C9460000C946000F9
S11300500C9460000C9460000C9460000C9460009C
S11300600C9460000C94600005A84CCDB2D44EB939
S11300703836A9020C50B9918688083CA6AAAA2A47
S1130080BE000000803F11241FBECFEFD4E0DEBFCE
S1130090CDBF11E0A0E0B1E0EAE5F2E102C00590D5
S11300A00D92AE30B107D9F721E0AEE0B1E001C066
S11300B01D92AE31B207E1F70E9462000C942B0945
S11300C00C94000084B18E6084B98AB1886E8AB9B8
S11300D081EA84BD809380008093B00081E08093A6
S11300E06E0080936F0080937000789485B5816072
S11300F085BDE1E8F0E0808181608083E1EBF0E0A0
S1130100808181608083C12CD12C7601C0E8D0E04D
S1130110F89480910001909101018330910509F4D4
S113012068C13CF48130910571F0029709F4B6C0BE
S11301300CC48530910509F4B2C20CF405C20697CB
S113014009F458C302C420E030E040EF53E4C7018F
S1130150B6010E94F8064B015C012BED3FE049EC2F
S113016050E40E942E080E949B0820E030E04EEFED
S113017052E40E942E080E946A079B01772324F40C
S113018022273327261B370BC90180589F4FBC01F8
S1130190990F880B990B0E94A20760930A01709330
S11301A00B0180930C0190930D0110921A0110928F
S11301B01B0110921C0110921D0110921601109245
S11301C0170110921801109219012BEA3AEA4AEA2F
S11301D05EE3C501B4010E948B062BED3FE049ECC0
S11301E050E40E942E080E949B0820E030E04EEF6D
S11301F052E40E942E080E946A079B01772324F48C
S113020022273327261B370BBE01621B730B072ED5
S1130210000C880B990B0E94A2076093060170934F
S1130220070180930801909309012BEA3AEA4AEA0C
S11302305EE3C501B4010E948C062BED3FE049EC5E
S113024050E40E942E080E949B0820E030E04EEF0C
S113025052E40E942E080E946A079B01772324F42B
S113026022273327261B370BB90160587F4F072EEF
S1130270000C880B990B0E94A207609302017093F3
S113028003018093040190930501109212011092CE
S11302901301109214011092150187C320E030E07D
S11302A040EF53E4C701B6010E94F8064B015C011C
S11302B02BED3FE049EC50E40E942E080E949B087D
S11302C020E030E04EEF52E40E942E080E946A07BC
S11302D09B01772324F422273327261B370BC901DC
S11302E080589F4FBC01990F880B990B0E94A2075D
S11302F060930A0170930B0180930C0190930D019C
S113030010921A0110921B0110921C0110921D01EF
S113031010921601109217011092180110921901EF
S11303202BEA3AEA4AEA5EE3C501B4010E948B066D
S11303302BED3FE049EC50E40E942E080E949B08FC
S113034020E030E04EEF52E40E942E080E946A073B
S11303509B01772324F422273327261B370BBE0166
S1130360621B730B072E000C880B990B0E94A207CB
S1130370609306017093070180930801909309012B
S113038010920201109203011092040110920501CF
S11303902BEA3AEA4AEA5EE3C501B4010E948C06FC
S11303A02BED3FE049EC50E40E942E080E949B088C
S11303B020E030E04EEF52E40E942E080E946A07CB
S11303C09B01772324F422273327261B370BBE01F6
S11303D0621B730B072E000C880B990B0E94A2075B
S11303E0609312017093130180931401909315018B
S11303F0DCC220E030E040EF53E4C701B6010E94C4
S1130400F8064B015C012BED3FE049EC50E40E94FF
S11304102E080E949B0820E030E04EEF52E40E9438
S11304202E080E946A079B01772324F4222733278E
S1130430261B370BB90160587F4F072E000C880B21
S1130440990B0E94A20760930A0170930B01809399
S11304500C0190930D0110921A0110921B0110923D
S11304601C0110921D012BEA3AEA4AEA5EE3C50137
S1130470B4010E948B062BED3FE049EC50E40E944E
S11304802E080E949B0820E030E04EEF52E40E94C8
S11304902E080E946A079B01772324F4222733271E
S11304A0261B370BC90180589F4FBC01990F880B3D
S11304B0990B0E94A2076093160170931701809311
S11304C018019093190110920601109207011092DD
S11304D00801109209011092020110920301109276
S11304E00401109205012BEA3AEA4AEA5EE3C501E7
S11304F0B4010E948C062BED3FE049EC50E40E94CD
S11305002E080E949B0820E030E04EEF52E40E9447
S11305102E080E946A079B01772324F4222733279D
S1130520261B370BBE01621B730B072E000C880BB6
S1130530990B0E94A2076093120170931301809398
S113054014019093150131C210920A0110920B010B
S113055010920C0110920D0120E030E040EF53E4C2
S1130560C701B6010E94F8064B015C012BED3FE088
S113057049EC50E40E942E080E949B0820E030E0E1
S11305804EEF52E40E942E080E946A079B017723D3
S113059024F422273327261B370BBE01621B730B5F
S11305A0072E000C880B990B0E94A20760931A0176
S11305B070931B0180931C0190931D012BEA3AEA6E
S11305C04AEA5EE3C501B4010E948B062BED3FE0CD
S11305D049EC50E40E942E080E949B0820E030E081
S11305E04EEF52E40E942E080E946A079B01772373
S11305F024F422273327261B370BC90180589F4F29
S1130600BC01990F880B990B0E94A20760931601F5
S113061070931701809318019093190110920601A9
S11306201092070110920801109209011092020120
S11306301092030110920401109205012BEA3AEA88
S11306404AEA5EE3C501B4010E948C062BED3FE04B
S113065049EC50E40E942E080E949B0820E030E000
S11306604EEF52E40E942E080E946A079B017723F2
S113067024F422273327261B370BBE01621B730B7E
S1130680072E000C880B990B0E94A207609312019D
S113069070931301809314019093150186C11092F5
S11306A00A0110920B0110920C0110920D0120E02E
S11306B030E040EF53E4C701B6010E94F8064B0155
S11306C05C012BED3FE049EC50E40E942E080E94AF
S11306D09B0820E030E04EEF52E40E942E080E9476
S11306E06A079B01772324F422273327261B370B21
S11306F0BE01621B730B072E000C880B990B0E9422
S1130700A20760931A0170931B0180931C019093BC
S11307101D012BEA3AEA4AEA5EE3C501B4010E94EC
S11307208B062BED3FE049EC50E40E942E080E941A
S11307309B0820E030E04EEF52E40E942E080E9415
S11307406A079B01772324F422273327261B370BC0
S1130750C90180589F4FBC01990F880B990B0E94C7
S1130760A207609316017093170180931801909368
S113077019011092060110920701109208011092BB
S113078009012BEA3AEA4AEA5EE3C501B4010E9490
S11307908C062BED3FE049EC50E40E942E080E94A9
S11307A09B0820E030E04EEF52E40E942E080E94A5
S11307B06A079B01772324F422273327261B370B50
S11307C0B90160587F4F072E000C880B990B0E94CB
S11307D0A207609302017093030180930401909334
S11307E0050110921201109213011092140110923B
S11307F01501DBC010920A0110920B0110920C013A
S113080010920D0120E030E040EF53E4C701B6013F
S11308100E94F8064B015C012BED3FE049EC50E4EB
S11308200E942E080E949B0820E030E04EEF52E424
S11308300E942E080E946A079B01772324F4222732
S11308403327261B370BBE01621B730B072E000CCC
S1130850880B990B0E94A20760931A0170931B01E5
S113086080931C0190931D011092160110921701A0
S113087010921801109219012BEA3AEA4AEA5EE34F
S1130880C501B4010E948B062BED3FE049EC50E416
S11308900E942E080E949B0820E030E04EEF52E4B4
S11308A00E942E080E946A079B01772324F42227C2
S11308B03327261B370BBE01621B730B072E000C5C
S11308C0880B990B0E94A20760930601709307019D
S11308D080930801909309012BEA3AEA4AEA5EE31D
S11308E0C501B4010E948C062BED3FE049EC50E4B5
S11308F00E942E080E949B0820E030E04EEF52E454
S11309000E942E080E946A079B01772324F4222761
S11309103327261B370BB90160587F4F072E000C75
S1130920880B990B0E94A207609302017093030144
S11309308093040190930501109212011092130107
S1130940109214011092150130C010920A011092F5
S11309500B0110920C0110920D0110921A011092C9
S11309601B0110921C0110921D011092160110928D
S11309701701109218011092190110920601109299
S113098007011092080110920901109202011092BD
S113099003011092040110920501109212011092A9
S11309A01301109214011092150180910E0190917F
S11309B00F01A0911001B09111018F349105A1058F
S11309C0B10504F15F9880910001909101010697AF
S11309D044F010920101109200015F9AC12CD12CB5
S11309E0760110920E0110920F01109210011092D4
S11309F011018091000190910101019690930101F0
S1130A008093000120E030E040E85FE3C701B601D5
S1130A100E948C066B017C0178947ACB1F920F9212
S1130A200FB60F9211242F933F934F935F936F93BD
S1130A307F938F939F93AF93BF93EF93FF93809193
S1130A400E0190910F01A0911001B0911101019636
S1130A50A11DB11D80930E0190930F01A09310016D
S1130A60B093110160910A0170910B0180910C0106
S1130A7090910D010E946A0767BD60911A017091FF
S1130A801B0180911C0190911D010E946A0768BDA1
S1130A9060911601709117018091180190911901CC
S1130AA00E946A0770938900609388006091060130
S1130AB07091070180910801909109010E946A07D1
S1130AC070938B0060938A0060910201709103011E
S1130AD080910401909105010E946A076093B3001C
S1130AE0609112017091130180911401909115018C
S1130AF00E946A076093B400FF91EF91BF91AF9198
S1130B009F918F917F916F915F914F913F912F9121
S1130B100F900FBE0F901F9018951F920F920FB653
S1130B200F9211242F933F934F935F936F937F936F
S1130B308F939F93AF93BF93EF93FF9380910E0195
S1130B4090910F01A0911001B09111010196A11D86
S1130B50B11D80930E0190930F01A0931001B093E7
S1130B60110160910A0170910B0180910C01909127
S1130B700D010E946A0767BD60911A0170911B0103
S1130B8080911C0190911D010E946A0768BD6091CB
S1130B9016017091170180911801909119010E941A
S1130BA06A077093890060938800609106017091D0
S1130BB0070180910801909109010E946A077093CE
S1130BC08B0060938A00609102017091030180910F
S1130BD00401909105010E946A076093B30060913B
S1130BE012017091130180911401909115010E94DA
S1130BF06A076093B400FF91EF91BF91AF919F9109
S1130C008F917F916F915F914F913F912F910F90B1
S1130C100FBE0F901F9018951F920F920FB60F9250
S1130C2011242F933F934F935F936F937F938F93ED
S1130C309F93AF93BF93EF93FF9380910E01909195
S1130C400F01A0911001B09111010196A11DB11DD8
S1130C5080930E0190930F01A0931001B0931101A2
S1130C6060910A0170910B0180910C0190910D012A
S1130C700E946A0767BD60911A0170911B018091FF
S1130C801C0190911D010E946A0768BD60911601C4
S1130C907091170180911801909119010E946A07BF
S1130CA07093890060938800609106017091070138
S1130CB080910801909109010E946A0770938B004A
S1130CC060938A0060910201709103018091040194
S1130CD0909105010E946A076093B300609112012C
S1130CE07091130180911401909115010E946A077B
S1130CF06093B400FF91EF91BF91AF919F918F9159
S1130D007F916F915F914F913F912F910F900FBE03
S1130D100F901F9018955058BB27AA270E94A3062E
S1130D200C94F4070E94E60738F00E94ED0720F0C7
S1130D3039F49F3F19F426F40C94E3070EF4E0957C
S1130D40E7FB0C94DD07E92F0E94050858F3BA1756
S1130D50620773078407950720F079F4A6F50C94CD
S1130D6027080EF4E0950B2EBA2FA02D0B01B90124
S1130D7090010C01CA01A0011124FF27591B99F00D
S1130D80593F50F4503E68F11A16F040A22F232F19
S1130D90342F4427585FF3CF469537952795A79569
S1130DA0F0405395C9F77EF41F16BA0B620B730B10
S1130DB0840BBAF09150A1F0FF0FBB1F661F771F81
S1130DC0881FC2F70EC0BA0F621F731F841F48F436
S1130DD0879577956795B795F7959E3F08F0B0CFBF
S1130DE09395880F08F09927EE0F979587950895A6
S1130DF00E940C070C94F4070E94ED0758F00E941F
S1130E00E60740F029F45F3F29F00C94DD07511107
S1130E100C9428080C94E3070E94050868F39923AE
S1130E20B1F3552391F3951B550BBB27AA276217E2
S1130E307307840738F09F5F5F4F220F331F441FEF
S1130E40AA1FA9F335D00E2E3AF0E0E832D0915023
S1130E505040E695001CCAF72BD0FE2F29D0660F10
S1130E60771F881FBB1F261737074807AB07B0E853
S1130E7009F0BB0B802DBF01FF2793585F4F3AF059
S1130E809E3F510578F00C94DD070C9428085F3FD1
S1130E90E4F3983ED4F3869577956795B795F795DF
S1130EA09F5FC9F7880F911D9695879597F90895C7
S1130EB0E1E0660F771F881FBB1F62177307840763
S1130EC0BA0720F0621B730B840BBA0BEE1F88F772
S1130ED0E09508950E9471076894B1110C94280854
S1130EE008950E940D0888F09F5798F0B92F99270C
S1130EF0B751B0F0E1F0660F771F881F991F1AF001
S1130F00BA95C9F714C0B13091F00E942708B1E036
S1130F1008950C942708672F782F8827B85F39F035
S1130F20B93FCCF3869577956795B395D9F73EF499
S1130F3090958095709561957F4F8F4F9F4F089541
S1130F40E89409C097FB3EF490958095709561955F
S1130F507F4F8F4F9F4F9923A9F0F92F96E9BB2715
S1130F609395F695879577956795B795F111F8CF91
S1130F70FAF4BB0F11F460FF1BC06F5F7F4F8F4FFC
S1130F809F4F16C0882311F096E911C0772321F0F2
S1130F909EE8872F762F05C0662371F096E8862F8A
S1130FA070E060E02AF09A95660F771F881FDAF7E1
S1130FB0880F9695879597F9089597F99F6780E824
S1130FC070E060E008959FEF80EC089500240A9497
S1130FD01616170618060906089500240A94121610
S1130FE01306140605060895092E0394000C11F443
S1130FF0882352F0BB0F40F4BF2B11F460FF04C0F0
S11310006F5F7F4F8F4F9F4F089557FD9058440F48
S1131010551F59F05F3F71F04795880F97FB991F53
S113102061F09F3F79F08795089512161306140610
S1131030551FF2CF4695F1DF08C01616170618069D
S1131040991FF1CF86957105610508940895E89478
S1131050BB2766277727CB0197F908950E9441089B
S11310600C94F4070E94E60738F00E94ED0720F084
S1131070952311F00C94DD070C94E30711240C94D0
S113108028080E94050870F3959FC1F3950F50E05E
S1131090551F629FF001729FBB27F00DB11D639F26
S11310A0AA27F00DB11DAA1F649F6627B00DA11DCC
S11310B0661F829F2227B00DA11D621F739FB00D72
S11310C0A11D621F839FA00D611D221F749F3327E2
S11310D0A00D611D231F849F600D211D822F762F7B
S11310E06A2F11249F5750409AF0F1F088234AF058
S11310F0EE0FFF1FBB1F661F771F881F91505040C4
S1131100A9F79E3F510580F00C94DD070C94280844
S11311105F3FE4F3983ED4F3869577956795B7954A
S1131120F795E7959F5FC1F7FE2B880F911D969564
S1131130879597F908959F930E94A5080F9007FC3F
S1131140EE5F0C94CE080C94E3070E940D08D8F3CC
S1131150E894E0E0BB279F57F0F02AED3FE049EC2C
S113116006C0EE0FBB0F661F771F881F28F0B23A28
S113117062077307840728F0B25A620B730B840B5F
S1131180E3959A9572F7803830F49A95BB0F661FF1
S1131190771F881FD2F790480C94E408EF93E0FF80
S11311A007C0A2EA2AED3FE049EC5FEB0E94A306E8
S11311B00E94F4070F90039401FC9058E8E6F0E0D5
S11311C00C94F0089F3F31F0915020F48795779567
S11311D06795B795880F911D9695879597F908950A
S11311E09F938F937F936F93FF93EF939B01AC0136
S11311F00E942E08EF91FF910E9404092F913F91C4
S11312004F915F910C942E08DF93CF931F930F930C
S1131210FF92EF92DF927B018C01689406C0DA2E74
S1131220EF010E944108FE01E894A59125913591B2
S113123045915591A6F3EF010E94A306FE01970183
S1131240A801DA9469F7DF90EF90FF900F911F9156
S10D1250CF91DF910895F894FFCFC9
S111125A0100000000430000004300000043B8
S9030000FC
