S012000054696D65727353796E632E7372656301
S11300000C9434000C943E000C943E000C943E007E
S11300100C943E000C943E000C943E000C943E0064
S11300200C943E000C943E000C943E000C945F0033
S11300300C943E000C943E000C943E000C943E0044
S11300400C9471000C943E000C943E000C943E0001
S11300500C943E000C943E000C943E000C943E0024
S11300600C943E000C943E0011241FBECFEFD4E04C
S1130070DEBFCDBF0E9440000C9483000C940000AE
S1130080229AE1E8F0E0808188608083559AAEE6A8
S1130090B0E08C9181608C93AFE6B0E08C9182608B
S11300A08C93789480E090E8909389008093880002
S11300B080818260808385B5856085BDFFCF1F9276
S11300C00F920FB60F9211248F939F9395B184E0F2
S11300D0892785B99F918F910F900FBE0F901F9024
S11300E018951F920F920FB60F9211248F939F931E
S11300F09BB180E289278BB99F918F910F900FBE9E
S10D01000F901F901895F894FFCF9C
S9030000FC
