:100000000C9434000C943E000C943E000C943E0082
:100010000C943E000C943E000C943E000C943E0068
:100020000C943E000C943E000C943E000C943E0058
:100030000C943E000C943E000C943E000C943E0048
:100040000C943E000C943E000C943E000C943E0038
:100050000C943E000C943E000C943E000C943E0028
:100060000C943E000C943E0011241FBECFEFD4E050
:10007000DEBFCDBF0E9440000C9456000C940000DF
:10008000229A8091810082608093810024E0809197
:100090008400909185008050914EC8F385B18227ED
:1000A00085B91092850010928400F1CFF894FFCFAB
:00000001FF
