S01600004465626F756E63696E67546573742E7372656370
S11300000C9434000C9446000C9446000C94460066
S11300100C9446000C9446000C9446000C94460044
S11300200C9446000C9446000C9446000C94460034
S11300300C9446000C9446000C9446000C94460024
S11300400C9446000C9446000C9446000C94460014
S11300500C9446000C9446000C9446000C94460004
S11300600C9446000C94460011241FBECFEFD4E03C
S1130070DEBFCDBF21E0A0E0B1E001C01D92A530FC
S1130080B207E1F70E94A8000C94D6000C9400007B
S1130090CF93DF931F92CDB7DEB76983698170E098
S11300A0FB0102C0F595E7954A95E2F7E0FD2AC009
S11300B0BC01660F771FFB01EE5FFE4F408151814B
S11300C04F5F5F4F51834083FB01E050FF4F11822C
S11300D0108224173507ACF5FC01EC5FFE4F20813C
S11300E0211107C0FC01EC5FFE4F21E0208381E079
S11300F02BC0880F991FFC01EE5FFE4F1182108206
S113010080E022C0BC01660F771FFB01E050FF4F67
S1130110408151814F5F5F4F51834083FB01EE5F0C
S1130120FE4F11821082241735076CF4FC01EC5F3A
S1130130FE4F1082FB01E050FF4F1182108280E0DD
S113014003C080E001C080E00F90DF91CF9108955B
S11301508AB180668AB920982898C0E0D0E000E08F
S113016010E06894DD24D6F8EE24E394F12C02C068
S1130170CE2DDF2D63B12EE130E040E080E090E051
S11301800E944800882359F0053011058CF38BB187
S11301908D258BB9CE2DDF2D00E010E0EBCF20971D
S11301A049F30F5F1F4FC0E0D0E0E4CFF894FFCFD6
S9030000FC
