:100000000C9443000C9460000C9460000C9460000D
:100010000C9460000C9460000C9460000C946000E0
:100020000C9460000C9460010C9460000C946000CF
:100030000C9460000C94E1000C9460000C9460003F
:100040000C9462000C9460000C9460000C946000AE
:100050000C9460000C9460000C9460000C946000A0
:100060000C9460000C94600005A84CCDB2D44EB93D
:100070003836A9020C50B9918688083CA6AAAA2A4B
:10008000BE000000803F11241FBECFEFD4E0DEBFD2
:10009000CDBF11E0A0E0B1E0ECE8F4E102C00590D2
:1000A0000D92A231B107D9F721E0A2E1B1E001C080
:1000B0001D92A432B207E1F70E94E6010C94440AB3
:1000C0000C9400001F920F920FB60F9211242F93E1
:1000D0003F934F935F936F937F938F939F93AF93D0
:1000E000BF93EF93FF938091140190911501A0911C
:1000F0001601B09117010196A11DB11D8093140145
:1001000090931501A0931601B093170160910E0111
:1001100070910F0180911001909111010E9483084C
:1001200067BD609120017091210180912201909121
:1001300023010E94830868BD60911C0170911D011C
:1001400080911E0190911F010E9483087093890085
:100150006093880060910A0170910B0180910C01FD
:1001600090910D010E94830870938B0060938A0028
:100170006091060170910701809108019091090139
:100180000E9483086093B300609118017091190177
:1001900080911A0190911B010E9483086093B40022
:1001A000FF91EF91BF91AF919F918F917F916F914F
:1001B0005F914F913F912F910F900FBE0F901F9025
:1001C00018951F920F920FB60F9211242F933F9301
:1001D0004F935F936F937F938F939F93AF93BF934F
:1001E000EF93FF938091140190911501A091160156
:1001F000B09117010196A11DB11D80931401909338
:100200001501A0931601B093170160910E01709132
:100210000F0180911001909111010E94830867BD28
:100220006091200170912101809122019091230120
:100230000E94830868BD60911C0170911D0180912E
:100240001E0190911F010E948308709389006093A2
:10025000880060910A0170910B0180910C019091CE
:100260000D010E94830870938B0060938A00609157
:1002700006017091070180910801909109010E9487
:1002800083086093B3006091180170911901809107
:100290001A0190911B010E9483086093B400FF91A2
:1002A000EF91BF91AF919F918F917F916F915F91EE
:1002B0004F913F912F910F900FBE0F901F90189567
:1002C0001F920F920FB60F9211242F933F934F93CB
:1002D0005F936F937F938F939F93AF93BF93EF93AE
:1002E000FF938091140190911501A0911601B09196
:1002F00017010196A11DB11D809314019093150162
:10030000A0931601B093170160910E0170910F0137
:1003100080911001909111010E94830867BD609146
:1003200020017091210180912201909123010E946E
:10033000830868BD60911C0170911D0180911E01B0
:1003400090911F010E948308709389006093880038
:1003500060910A0170910B0180910C0190910D0147
:100360000E94830870938B0060938A00609106015D
:100370007091070180910801909109010E94830802
:100380006093B300609118017091190180911A0176
:1003900090911B010E9483086093B400FF91EF913C
:1003A000BF91AF919F918F917F916F915F914F918D
:1003B0003F912F910F900FBE0F901F90189585E4DD
:1003C00080937C0085E880937A00089584B18E60E4
:1003D00084B98AB1886E8AB981EA84BD809380002D
:1003E0008093B00081E080936E0080936F008093D3
:1003F00070000E94DF01789485B5816085BDE1E8D9
:10040000F0E0808181608083E1EBF0E080818160B9
:100410008083C12CD12C7601CAE7D0E008E710E038
:10042000F894888180648883888186FDFDCFF801F7
:10043000808191819093130180931201880F991FFD
:100440000196A0E0B0E08093000190930101A09399
:100450000201B09303018091040190910501833062
:10046000910509F4CAC13CF48130910571F00297FD
:1004700009F4E7C025C58530910509F476C30CF46D
:1004800098C2069709F447C41BC5409000015090DC
:10049000010160900201709003012BED3FE049ECF7
:1004A00050E4C701B6010E9447094B015C01C3013A
:1004B000B2010E94BB0820E030E040EC50E40E9412
:1004C00047099B01AC01C501B4010E9411080E94BB
:1004D000B40920E030E048EC52E40E9447090E9451
:1004E00083089B01772324F422273327261B370B0D
:1004F000B901330F880B990B0E94BB0860930E0162
:1005000070930F01809310019093110110922001BC
:1005100010922101109222011092230110921C01CD
:1005200010921D0110921E0110921F016091000196
:100530007091010180910201909103010E94BB081A
:1005400020E030E040EC50E40E9447099B01AC0100
:10055000C701B6010E9411082BEA3AEA4AEA5EE3B3
:100560000E94A4072BED3FE049EC50E40E944709AC
:100570000E94B40920E030E048EC52E40E944709B0
:100580000E9483089B01772324F422273327261B0C
:10059000370BB901330F880B990B0E94BB0860938E
:1005A0000A0170930B0180930C0190930D016091EF
:1005B00000017091010180910201909103010E945C
:1005C000BB0820E030E040EC50E40E9447099B016A
:1005D000AC01C701B6010E9411082BEA3AEA4AE2CF
:1005E0005FE30E94A4072BED3FE049EC50E40E943A
:1005F00047090E94B40920E030E048EC52E40E9430
:1006000047090E9483089B01772324F4222733277C
:10061000261B370BB901330F880B990B0E94BB08BF
:10062000609306017093070180930801909309017C
:10063000109218011092190110921A0110921B01C8
:100640003FC4409000015090010160900201709001
:1006500003012BED3FE049EC50E4C701B6010E94D5
:1006600047094B015C01C301B2010E94BB0820E0B5
:1006700030E040EC50E40E9447099B01AC01C50109
:10068000B4010E9411080E94B40920E030E048EC57
:1006900052E40E9447090E9483089B01772324F4B7
:1006A00022273327261B370BB901330F880B990BF1
:1006B0000E94BB0860930E0170930F01809310019C
:1006C00090931101109220011092210110922201A9
:1006D0001092230110921C0110921D0110921E0114
:1006E00010921F016091000170910101809102013F
:1006F000909103010E94BB0820E030E040EC50E400
:100700000E9447099B01AC01C701B6010E94110874
:100710002BEA3AEA4AEA5EE30E94A4072BED3FE0A7
:1007200049EC50E40E9447090E94B40920E030E0FF
:1007300048EC52E40E9447090E9483089B017723FA
:1007400024F422273327261B370BB901330F880BDC
:10075000990B0E94BB0860930A0170930B01809370
:100760000C0190930D011092060110920701109256
:1007700008011092090160910001709101018091BE
:100780000201909103010E94BB0820E030E040ECA0
:1007900050E40E9447099B01AC01C701B6010E94C9
:1007A00011082BEA3AEA4AE25FE30E94A4072BED24
:1007B0003FE049EC50E40E9447090E94B40920E060
:1007C00030E048EC52E40E9447090E9483089B01F4
:1007D000772324F422273327261B370BB901330F45
:1007E000880B990B0E94BB08609318017093190144
:1007F00080931A0190931B0163C3409000015090B5
:10080000010160900201709003012BED3FE049EC83
:1008100050E4C701B6010E9447094B015C01C301C6
:10082000B2010E94BB0820E030E040EC50E40E949E
:1008300047099B01AC01C501B4010E9411080E9447
:10084000B40920E030E048EC52E40E9447090E94DD
:1008500083089B01772324F422273327261B370B99
:10086000B901330F880B990B0E94BB0860930E01EE
:1008700070930F0180931001909311011092200149
:100880001092210110922201109223016091000127
:100890007091010180910201909103010E94BB08B7
:1008A00020E030E040EC50E40E9447099B01AC019D
:1008B000C701B6010E9411082BEA3AEA4AEA5EE350
:1008C0000E94A4072BED3FE049EC50E40E94470949
:1008D0000E94B40920E030E048EC52E40E9447094D
:1008E0000E9483089B01772324F422273327261BA9
:1008F000370BB901330F880B990B0E94BB0860932B
:100900001C0170931D0180931E0190931F01109292
:100910000A0110920B0110920C0110920D0110921D
:1009200006011092070110920801109209016091CE
:1009300000017091010180910201909103010E94D8
:10094000BB0820E030E040EC50E40E9447099B01E6
:10095000AC01C701B6010E9411082BEA3AEA4AE24B
:100960005FE30E94A4072BED3FE049EC50E40E94B6
:1009700047090E94B40920E030E048EC52E40E94AC
:1009800047090E9483089B01772324F422273327F9
:10099000261B370BB901330F880B990B0E94BB083C
:1009A000609318017093190180931A0190931B01B1
:1009B00087C210920E0110920F0110921001109236
:1009C00011018090000190900101A0900201B0906F
:1009D00003012BED3FE049EC50E4C701B6010E9452
:1009E00047092B013C01C501B4010E94BB0820E06E
:1009F00030E040EC50E40E9447099B01AC01C30188
:100A0000B2010E9411080E94B40920E030E048ECD5
:100A100052E40E9447090E9483089B01772324F433
:100A200022273327261B370BB901330F880B990B6D
:100A30000E94BB08609320017093210180932201E2
:100A40009093230160910001709101018091020156
:100A5000909103010E94BB0820E030E040EC50E49C
:100A60000E9447099B01AC01C701B6010E94110811
:100A70002BEA3AEA4AEA5EE30E94A4072BED3FE044
:100A800049EC50E40E9447090E94B40920E030E09C
:100A900048EC52E40E9447090E9483089B01772397
:100AA00024F422273327261B370BB901330F880B79
:100AB000990B0E94BB0860931C0170931D018093E9
:100AC0001E0190931F0110920A0110920B011092C7
:100AD0000C0110920D011092060110920701109264
:100AE000080110920901609100017091010180914B
:100AF0000201909103010E94BB0820E030E040EC2D
:100B000050E40E9447099B01AC01C701B6010E9455
:100B100011082BEA3AEA4AE25FE30E94A4072BEDB0
:100B20003FE049EC50E40E9447090E94B40920E0EC
:100B300030E048EC52E40E9447090E9483089B0180
:100B4000772324F422273327261B370BB901330FD1
:100B5000880B990B0E94BB086093180170931901D0
:100B600080931A0190931B01ABC110920E01109259
:100B70000F0110921001109211016091000170910B
:100B8000010180910201909103010E94BB0820E0C5
:100B900030E040EC50E40E9447099B01AC01C701E2
:100BA000B6010E9411082BED3FE049EC50E40E9491
:100BB00047090E94B40920E030E048EC52E40E946A
:100BC00047090E9483089B01772324F422273327B7
:100BD000261B370BB901330F880B990B0E94BB08FA
:100BE000609320017093210180932201909323014F
:100BF00060910001709101018091020190910301C7
:100C00000E94BB0820E030E040EC50E40E9447091D
:100C10009B01AC01C701B6010E9411082BEA3AEA18
:100C20004AEA5EE30E94A4072BED3FE049EC50E462
:100C30000E9447090E94B40920E030E048EC52E4E9
:100C40000E9447090E9483089B01772324F42227EE
:100C50003327261B370BB901330F880B990B0E94E2
:100C6000BB0860931C0170931D0180931E0190933B
:100C70001F0110920A0110920B0110920C011092A8
:100C80000D0160910001709101018091020190912C
:100C900003010E94BB0820E030E040EC50E40E94D9
:100CA00047099B01AC01C701B6010E9411082BEA5C
:100CB0003AEA4AE25FE30E94A4072BED3FE049ECE9
:100CC00050E40E9447090E94B40920E030E048EC5B
:100CD00052E40E9447090E9483089B01772324F471
:100CE00022273327261B370BB901330F880B990BAB
:100CF0000E94BB086093060170930701809308016E
:100D000090930901109218011092190110921A0182
:100D100010921B01D5C010920E0110920F0110927B
:100D200010011092110160910001709101018091F8
:100D30000201909103010E94BB0820E030E040ECEA
:100D400050E40E9447099B01AC01C701B6010E9413
:100D500011082BED3FE049EC50E40E9447090E9446
:100D6000B40920E030E048EC52E40E9447090E94B8
:100D700083089B01772324F422273327261B370B74
:100D8000B901330F880B990B0E94BB0860932001B7
:100D900070932101809322019093230110921C01F2
:100DA00010921D0110921E0110921F01609100010E
:100DB0007091010180910201909103010E94BB0892
:100DC00020E030E040EC50E40E9447099B01AC0178
:100DD000C701B6010E9411082BEA3AEA4AEA5EE32B
:100DE0000E94A4072BED3FE049EC50E40E94470924
:100DF0000E94B40920E030E048EC52E40E94470928
:100E00000E9483089B01772324F422273327261B83
:100E1000370BB901330F880B990B0E94BB08609305
:100E20000A0170930B0180930C0190930D01609166
:100E300000017091010180910201909103010E94D3
:100E4000BB0820E030E040EC50E40E9447099B01E1
:100E5000AC01C701B6010E9411082BEA3AEA4AE246
:100E60005FE30E94A4072BED3FE049EC50E40E94B1
:100E700047090E94B40920E030E048EC52E40E94A7
:100E800047090E9483089B01772324F422273327F4
:100E9000261B370BB901330F880B990B0E94BB0837
:100EA00060930601709307018093080190930901F4
:100EB000109218011092190110921A0110921B0140
:100EC0008091000190910101A0910201B091030174
:100ED0004091140150911501609116017091170114
:100EE0000197A109B109481759076A077B0704F15F
:100EF0005F988091040190910501069744F010924B
:100F00000501109204015F9AC12CD12C7601109238
:100F10001401109215011092160110921701809180
:100F200004019091050101969093050180930401BD
:100F300020E030E040E85FE3C701B6010E94A5076A
:100F40006B017C0178946CCA5058BB27AA270E9479
:100F5000BC070C940D090E94FF0838F00E94060996
:100F600020F039F49F3F19F426F40C94FC080EF499
:100F7000E095E7FB0C94F608E92F0E941E0958F350
:100F8000BA17620773078407950720F079F4A6F56E
:100F90000C9440090EF4E0950B2EBA2FA02D0B01F6
:100FA000B90190010C01CA01A0011124FF27591BAE
:100FB00099F0593F50F4503E68F11A16F040A22FB4
:100FC000232F342F4427585FF3CF46953795279525
:100FD000A795F0405395C9F77EF41F16BA0B620B24
:100FE000730B840BBAF09150A1F0FF0FBB1F661F6B
:100FF000771F881FC2F70EC0BA0F621F731F841FAE
:1010000048F4879577956795B795F7959E3F08F0D3
:10101000B0CF9395880F08F09927EE0F9795879595
:1010200008950E9425080C940D090E94060958F0A5
:101030000E94FF0840F029F45F3F29F00C94F60865
:1010400051110C9441090C94FC080E941E0968F38C
:101050009923B1F3552391F3951B550BBB27AA2771
:1010600062177307840738F09F5F5F4F220F331FAB
:10107000441FAA1FA9F335D00E2E3AF0E0E832D073
:1010800091505040E695001CCAF72BD0FE2F29D076
:10109000660F771F881FBB1F261737074807AB0748
:1010A000B0E809F0BB0B802DBF01FF2793585F4FBD
:1010B0003AF09E3F510578F00C94F6080C944109E3
:1010C0005F3FE4F3983ED4F3869577956795B7959F
:1010D000F7959F5FC9F7880F911D9695879597F9AA
:1010E0000895E1E0660F771F881FBB1F6217730723
:1010F0008407BA0720F0621B730B840BBA0BEE1F38
:1011000088F7E09508950E948A086894B1110C94BC
:10111000410908950E94260988F09F5798F0B92F39
:101120009927B751B0F0E1F0660F771F881F991F1C
:101130001AF0BA95C9F714C0B13091F00E94400975
:10114000B1E008950C944009672F782F8827B85F85
:1011500039F0B93FCCF3869577956795B395D9F774
:101160003EF490958095709561957F4F8F4F9F4F7E
:101170000895E89409C097FB3EF49095809570958A
:1011800061957F4F8F4F9F4F9923A9F0F92F96E9D3
:10119000BB279395F695879577956795B795F11148
:1011A000F8CFFAF4BB0F11F460FF1BC06F5F7F4FE5
:1011B0008F4F9F4F16C0882311F096E911C07723F7
:1011C00021F09EE8872F762F05C0662371F096E800
:1011D000862F70E060E02AF09A95660F771F881FCF
:1011E000DAF7880F9695879597F9089597F99F678D
:1011F00080E870E060E008959FEF80EC089500249F
:101200000A941616170618060906089500240A946B
:1012100012161306140605060895092E0394000CF1
:1012200011F4882352F0BB0F40F4BF2B11F460FF80
:1012300004C06F5F7F4F8F4F9F4F089557FD9058A9
:10124000440F551F59F05F3F71F04795880F97FB8A
:10125000991F61F09F3F79F0879508951216130644
:101260001406551FF2CF4695F1DF08C01616170673
:101270001806991FF1CF86957105610508940895A8
:10128000E894BB2766277727CB0197F908950E943A
:101290005A090C940D090E94FF0838F00E940609B3
:1012A00020F0952311F00C94F6080C94FC081124FE
:1012B0000C9441090E941E0970F3959FC1F3950F8C
:1012C00050E0551F629FF001729FBB27F00DB11DCA
:1012D000639FAA27F00DB11DAA1F649F6627B00D5A
:1012E000A11D661F829F2227B00DA11D621F739F43
:1012F000B00DA11D621F839FA00D611D221F749F51
:101300003327A00D611D231F849F600D211D822F97
:10131000762F6A2F11249F5750409AF0F1F08823BE
:101320004AF0EE0FFF1FBB1F661F771F881F9150EB
:101330005040A9F79E3F510580F00C94F6080C949C
:1013400041095F3FE4F3983ED4F38695779567951E
:10135000B795F795E7959F5FC1F7FE2B880F911D15
:101360009695879597F908959F930E94BE090F90CF
:1013700007FCEE5F0C94E7090C94FC080E94260918
:10138000D8F3E894E0E0BB279F57F0F02AED3FE068
:1013900049EC06C0EE0FBB0F661F771F881F28F0B1
:1013A000B23A62077307840728F0B25A620B730BD4
:1013B000840BE3959A9572F7803830F49A95BB0FB9
:1013C000661F771F881FD2F790480C94FD09EF9392
:1013D000E0FF07C0A2EA2AED3FE049EC5FEB0E9484
:1013E000BC070E940D090F90039401FC9058E8E699
:1013F000F0E00C94090A9F3F31F0915020F487955A
:1014000077956795B795880F911D9695879597F96C
:1014100008959F938F937F936F93FF93EF939B0117
:10142000AC010E944709EF91FF910E941D0A2F9184
:101430003F914F915F910C944709DF93CF931F9396
:101440000F93FF92EF92DF927B018C01689406C0AC
:10145000DA2EEF010E945A09FE01E894A591259128
:10146000359145915591A6F3EF010E94BC07FE010D
:101470009701A801DA9469F7DF90EF90FF900F9140
:0C1480001F91CF91DF910895F894FFCFE9
:10148C005000000001000000004300000043000079
:02149C0000430B
:00000001FF
