:100000000C9434000C9451000C9451000C94510049
:100010000C9451000C9451000C9451000C9451001C
:100020000C9451000C9451010C9451000C9451000B
:100030000C9451000C94D2000C9451000C9451007B
:100040000C9453000C9451000C9451000C945100EA
:100050000C9451000C9451000C9451000C945100DC
:100060000C9451000C94510011241FBECFEFD4E02A
:10007000DEBFCDBF11E0A0E0B1E0E4EEF7E002C0EA
:1000800005900D92A231B107D9F721E0A2E1B1E0CC
:1000900001C01D92A432B207E1F70E94D7010C946F
:1000A000F0030C9400001F920F920FB60F921124D0
:1000B0002F933F934F935F936F937F938F939F9370
:1000C000AF93BF93EF93FF9380911401909115012B
:1000D000A0911601B09117010196A11DB11D809349
:1000E000140190931501A0931601B093170160912C
:1000F0000E0170910F0180911001909111010E94E9
:10010000910367BD609120017091210180912201CE
:10011000909123010E94910368BD60911C01709130
:100120001D0180911E0190911F010E949103709307
:1001300089006093880060910A0170910B018091A1
:100140000C0190910D010E94910370938B006093BC
:100150008A006091060170910701809108019091D9
:1001600009010E9491036093B3006091180170919E
:10017000190180911A0190911B010E9491036093D3
:10018000B400FF91EF91BF91AF919F918F917F91BB
:100190006F915F914F913F912F910F900FBE0F90F4
:1001A0001F9018951F920F920FB60F9211242F9344
:1001B0003F934F935F936F937F938F939F93AF93EF
:1001C000BF93EF93FF938091140190911501A0913B
:1001D0001601B09117010196A11DB11D8093140164
:1001E00090931501A0931601B093170160910E0131
:1001F00070910F0180911001909111010E94910363
:1002000067BD609120017091210180912201909140
:1002100023010E94910368BD60911C0170911D0132
:1002200080911E0190911F010E949103709389009B
:100230006093880060910A0170910B0180910C011C
:1002400090910D010E94910370938B0060938A003E
:100250006091060170910701809108019091090158
:100260000E9491036093B30060911801709119018D
:1002700080911A0190911B010E9491036093B40038
:10028000FF91EF91BF91AF919F918F917F916F916E
:100290005F914F913F912F910F900FBE0F901F9044
:1002A00018951F920F920FB60F9211242F933F9320
:1002B0004F935F936F937F938F939F93AF93BF936E
:1002C000EF93FF938091140190911501A091160175
:1002D000B09117010196A11DB11D80931401909357
:1002E0001501A0931601B093170160910E01709152
:1002F0000F0180911001909111010E94910367BD3F
:10030000609120017091210180912201909123013F
:100310000E94910368BD60911C0170911D01809144
:100320001E0190911F010E949103709389006093B8
:10033000880060910A0170910B0180910C019091ED
:100340000D010E94910370938B0060938A0060916D
:1003500006017091070180910801909109010E94A6
:1003600091036093B300609118017091190180911D
:100370001A0190911B010E9491036093B400FF91B8
:10038000EF91BF91AF919F918F917F916F915F910D
:100390004F913F912F910F900FBE0F901F90189586
:1003A00085E480937C0085E880937A00089584B189
:1003B0008E6084B98AB1886E8AB981EA84BD8093DF
:1003C00080008093B00081E080936E0080936F0086
:1003D000809370000E94D001789485B5816085BDBE
:1003E000E1E8F0E0808181608083E1EBF0E08081F2
:1003F00081608083EAE7F0E0C8E7D0E040E050E0C9
:1004000066E173E4F894808180648083808186FD56
:10041000FDCF888199819093130180931201880FF9
:10042000991F0196A0E0B0E0809300019093010134
:10043000A0930201B0930301809104019091050102
:100440008330910509F473C034F48130910569F06B
:100450000297E1F12FC18530910509F4CAC00CF46F
:1004600097C0069709F4F6C025C140930E0150933A
:100470000F016093100170931101109220011092EE
:100480002101109222011092230110921C0110925E
:100490001D0110921E0110921F0140930A015093FA
:1004A0000B0160930C0170930D01109206011092E4
:1004B0000701109208011092090110921801109280
:1004C000190110921A0110921B01F4C040930E0101
:1004D00050930F016093100170931101109220014D
:1004E00010922101109222011092230110921C01FE
:1004F00010921D0110921E0110921F0110920A010C
:1005000010920B0110920C0110920D011092060135
:1005100010920701109208011092090140931801EE
:100520005093190160931A0170931B01C3C010927C
:100530000E0110920F0110921001109211011092F1
:100540002001109221011092220110922301409368
:100550001C0150931D0160931E0170931F011092A6
:100560000A0110920B0110920C0110920D011092D1
:1005700006011092070110920801109209014093A0
:1005800018015093190160931A0170931B0192C0D6
:1005900010920E0110920F01109210011092110191
:1005A0004093200150932101609322017093230115
:1005B00040931C0150931D0160931E0170931F0115
:1005C00010920A0110920B0110920C0110920D0171
:1005D0001092060110920701109208011092090171
:1005E000109218011092190110921A0110921B0119
:1005F00061C010920E0110920F0110921001109222
:1006000011014093200150932101609322017093C6
:10061000230110921C0110921D0110921E011092D4
:100620001F0110920A0110920B0110920C011092FE
:100630000D014093060150930701609308017093E8
:100640000901109218011092190110921A011092CA
:100650001B0130C010920E0110920F011092100178
:10066000109211011092200110922101109222018A
:100670001092230110921C0110921D0110921E0174
:1006800010921F0140930A0150930B0160930C01DB
:1006900070930D0140930601509307016093080188
:1006A00070930901109218011092190110921A0109
:1006B00010921B018091000190910101A091020113
:1006C000B0910301009114011091150120911601C0
:1006D000309117010197A109B109081719072A07D5
:1006E0003B07ECF05F98809104019091050106971B
:1006F0002CF010920501109204015F9A10921401DF
:1007000010921501109216011092170180910401A8
:1007100090910501019690930501809304017894CE
:1007200071CE0E9498036894B1110C94EA03089565
:100730000E94CF0388F09F5798F0B92F9927B7519F
:10074000B0F0E1F0660F771F881F991F1AF0BA9575
:10075000C9F714C0B13091F00E94E903B1E00895E7
:100760000C94E903672F782F8827B85F39F0B93FD9
:10077000CCF3869577956795B395D9F73EF4909528
:100780008095709561957F4F8F4F9F4F089557FDCE
:100790009058440F551F59F05F3F71F04795880FEF
:1007A00097FB991F61F09F3F79F087950895121686
:1007B00013061406551FF2CF4695F1DF08C0161632
:1007C00017061806991FF1CF8695710561050894E3
:1007D0000895E894BB2766277727CB0197F90895FA
:0407E000F894FFCFBB
:1007E400500000000100000000430000004300002E
:0207F4000043C0
:00000001FF
