:100000000C9434000C9446000C9446000C9446006A
:100010000C9446000C9446000C9446000C94460048
:100020000C9446000C9446000C9446000C94460038
:100030000C9446000C9446000C9446000C94460028
:100040000C94B4000C9446000C9448000C944600A8
:100050000C9446000C9446000C9446000C94460008
:100060000C9446000C94460011241FBECFEFD4E040
:10007000DEBFCDBF21E0A0E0B1E001C01D92A630FF
:10008000B207E1F70E9471000C94AB020C940000DF
:100090001F920F920FB60F9211248F93EF93FF933D
:1000A000E6ECF0E08081809304018091040180837C
:1000B000F894FF91EF918F910F900FBE0F901F90CA
:1000C00018959093C5008093C400E1ECF0E088E1BE
:1000D000808386E08093C2008081806880837894EA
:1000E000089587B1806387B9229A80E68AB981EA48
:1000F00084BD81E080936E0020E030E048EC52E463
:1001000060910001709101018091020190910301C1
:100110000E940F0120E030E04FE753E40E943E02CE
:100120000E94810167BD109205011092040180E1D7
:1001300090E00E94610082E085BD609104016F77CC
:1001400070E080E090E00E94B20160930001709343
:100150000101809302019093030180910401807852
:10016000809305017894E9CF1F920F920FB60F92FA
:1001700011242F933F934F935F936F937F938F93AC
:100180009F93AF93BF93EF93FF93809105018823D3
:10019000C9F020E030E04FE753E460910001709136
:1001A000010180910201909103010E943E0220E032
:1001B00030E04EEF52E40E940F010E94810167BDC2
:1001C00018BC1CC080910501811118C017BC20E02B
:1001D00030E04FE753E4609100017091010180919C
:1001E0000201909103010E943E0220E030E04EEFB8
:1001F00052E40E940F010E94810168BDFF91EF91BE
:10020000BF91AF919F918F917F916F915F914F912E
:100210003F912F910F900FBE0F901F9018950E9445
:1002200023010C9404020E94FD0158F00E94F60183
:1002300040F029F45F3F29F00C94ED0151110C942A
:1002400038020C94F3010E94150268F39923B1F36C
:10025000552391F3951B550BBB27AA2762177307EC
:10026000840738F09F5F5F4F220F331F441FAA1F80
:10027000A9F335D00E2E3AF0E0E832D0915050403C
:10028000E695001CCAF72BD0FE2F29D0660F771FEA
:10029000881FBB1F261737074807AB07B0E809F0D0
:1002A000BB0B802DBF01FF2793585F4F3AF09E3F55
:1002B000510578F00C94ED010C9438025F3FE4F3A3
:1002C000983ED4F3869577956795B795F7959F5F98
:1002D000C9F7880F911D9695879597F90895E1E0E4
:1002E000660F771F881FBB1F621773078407BA0743
:1002F00020F0621B730B840BBA0BEE1F88F7E0959E
:1003000008950E941D0288F09F5798F0B92F9927F1
:10031000B751B0F0E1F0660F771F881F991F1AF0F0
:10032000BA95C9F714C0B13091F00E943702B1E01C
:1003300008950C943702672F782F8827B85F39F01B
:10034000B93FCCF3869577956795B395D9F73EF489
:1003500090958095709561957F4F8F4F9F4F089531
:10036000E89409C097FB3EF490958095709561954F
:100370007F4F8F4F9F4F9923A9F0F92F96E9BB2705
:100380009395F695879577956795B795F111F8CF81
:10039000FAF4BB0F11F460FF1BC06F5F7F4F8F4FEC
:1003A0009F4F16C0882311F096E911C0772321F0E2
:1003B0009EE8872F762F05C0662371F096E8862F7A
:1003C00070E060E02AF09A95660F771F881FDAF7D1
:1003D000880F9695879597F9089597F99F6780E814
:1003E00070E060E008959FEF80EC089500240A9487
:1003F0001616170618060906089500240A94121600
:100400001306140605060895092E0394000C11F432
:10041000882352F0BB0F40F4BF2B11F460FF04C0DF
:100420006F5F7F4F8F4F9F4F089557FD9058440F38
:10043000551F59F05F3F71F04795880F97FB991F43
:1004400061F09F3F79F08795089512161306140600
:10045000551FF2CF4695F1DF08C01616170618068D
:10046000991FF1CF86957105610508940895E89468
:10047000BB2766277727CB0197F908950E94510281
:100480000C9404020E94F60138F00E94FD0120F055
:10049000952311F00C94ED010C94F30111240C94AC
:1004A00038020E94150270F3959FC1F3950F50E03A
:1004B000551F629FF001729FBB27F00DB11D639F16
:1004C000AA27F00DB11DAA1F649F6627B00DA11DBC
:1004D000661F829F2227B00DA11D621F739FB00D62
:1004E000A11D621F839FA00D611D221F749F3327D2
:1004F000A00D611D231F849F600D211D822F762F6B
:100500006A2F11249F5750409AF0F1F088234AF047
:10051000EE0FFF1FBB1F661F771F881F91505040B3
:10052000A9F79E3F510580F00C94ED010C94380220
:100530005F3FE4F3983ED4F3869577956795B7953A
:10054000F795E7959F5FC1F7FE2B880F911D969554
:0A055000879597F90895F894FFCFFE
:00000001FF
