:100000000C9434000C943E000C943E000C943E0082
:100010000C943E000C943E000C943E000C943E0068
:100020000C943E000C943E000C943E000C943E0058
:100030000C943E000C9453000C943E000C943E0033
:100040000C943E000C943E000C943E000C943E0038
:100050000C943E000C943E000C943E000C943E0028
:100060000C943E000C943E0011241FBECFEFD4E050
:10007000DEBFCDBF0E9440000C946B000C940000CA
:10008000229A80916F00816080936F00789487EF4F
:1000900092EC90938500809384008091810083602E
:1000A00080938100FFCF1F920F920FB60F92112401
:1000B0008F939F9385B194E0892785B987EF92EC60
:1000C00090938500809384009F918F910F900FBE35
:0A00D0000F901F901895F894FFCFD1
:00000001FF
