S01C0000684272696467654D6963726F7374657070696E672E73726563EF
S11300000C9443000C9460000C9460000C94600009
S11300100C9460000C9460000C9460000C946000DC
S11300200C9460000C9460000C9460000C946000CC
S11300300C9460000C948A020C9460000C94600090
S11300400C9423020C9460000C9460000C946000E7
S11300500C9460000C9460000C9460000C9460009C
S11300600C9460000C94600005A84CCDB2D44EB939
S11300703836A9020C50B9918688083CA6AAAA2A47
S1130080BE000000803F11241FBECFEFD4E0DEBFCE
S1130090CDBF11E0A0E0B1E0E6E2FBE002C00590D4
S11300A00D92A230B107D9F721E0A2E0B1E001C07E
S11300B01D92A631B207E1F70E9462000C949105EB
S11300C00C94000084B1866084B98AB1806E8AB9C8
S11300D081EA84BD8093800081E080936E008093E8
S11300E06F00789485B5816085BDE1E8F0E080819A
S11300F081608083C12CD12C7601F8948091000119
S113010090910101019731F08091000190910101DA
S11301100297A1F520E030E046E154E4C701B601BE
S11301200E945E032BEA3AEA4AE25EE30E94F2028C
S11301302BED3FE049EC50E40E9494040E94010539
S113014020E030E04FE753E40E9494040E94D0037F
S11301509B01772324F422273327261B370BB9016D
S1130160330F880B990B0E9408046093120170935B
S11301701301809314019093150142C080910001F2
S1130180909101010897A1F520E030E04FE254E49A
S1130190C701B6010E94F10220E030E046E154E4D8
S11301A00E945E032BED3FE049EC50E40E9494046E
S11301B00E94010520E030E04FE753E40E949404DC
S11301C00E94D0039B01772324F422273327261B84
S11301D0370BB901330F880B990B0E940804609305
S11301E0120170931301809314019093150108C0B8
S11301F01092120110921301109214011092150121
S11302008091000190910101029761F080910001B9
S113021090910101039731F08091000190910101C7
S11302200497A1F520E030E046E154E4C701B601AB
S11302300E945E032BEA3AEA4AE25EE30E94F1027C
S11302402BED3FE049EC50E40E9494040E94010528
S113025020E030E04FE753E40E9494040E94D0036E
S11302609B01772324F422273327261B370BB9015C
S1130270330F880B990B0E94080460930A01709352
S11302800B0180930C0190930D0108C010920A0198
S113029010920B0110920C0110920D01809100013B
S11302A090910101049761F0809100019091010106
S11302B0059731F080910001909101010697A1F515
S11302C020E030E046E154E4C701B6010E945E0339
S11302D020E030E040E05FE30E94F1022BED3FE0DC
S11302E049EC50E40E9494040E94010520E030E0AF
S11302F04FE753E40E9494040E94D0039B017723A8
S113030024F422273327261B370BB901330F880B1C
S1130310990B0E94080460930E0170930F0180935F
S113032010019093110108C010920E0110920F0158
S1130330109210011092110180910001909101011D
S1130340069761F08091000190910101079731F0C7
S113035080910001909101010897A1F520E030E01F
S113036046E154E4C701B6010E945E0325E535E584
S113037045E55FE30E94F1022BED3FE049EC50E4D8
S11303800E9494040E94010520E030E04FE753E40A
S11303900E9494040E94D0039B01772324F4222713
S11303A03327261B370BB901330F880B990B0E9497
S11303B008046093060170930701809308019093E9
S11303C0090108C010920601109207011092080159
S11303D0109209018091020190910301A0910401FE
S11303E0B091050183369105A105B10504F15F982B
S11303F08091000190910101089744F0109201014D
S1130400109200015F9AC12CD12C76011092020146
S113041010920301109204011092050180910001D1
S1130420909101010196909301018093000120E0D5
S113043030E040E85FE3C701B6010E94F2026B01BD
S11304407C0178945ACE1F920F920FB60F9211240A
S11304502F933F934F935F936F937F938F939F93C8
S1130460AF93BF93EF93FF938091020190910301A7
S1130470A0910401B09105010196A11DB11D8093C5
S1130480020190930301A0930401B09305016091CC
S113049006017091070180910801909109010E9461
S11304A0D00367BD60910A0170910B0180910C012A
S11304B090910D010E94D00368BD6091120170916A
S11304C0130180911401909115010E94D00370933F
S11304D089006093880060910E0170910F018091F2
S11304E01001909111010E94D00370938B006093CE
S11304F08A00FF91EF91BF91AF919F918F917F916E
S11305006F915F914F913F912F910F900FBE0F907C
S11305101F9018951F920F920FB60F9211242F93CC
S11305203F934F935F936F937F938F939F93AF9377
S1130530BF93EF93FF938091020190910301A091E7
S11305400401B09105010196A11DB11D8093020122
S113055090930301A0930401B093050160910601F7
S11305607091070180910801909109010E94D003C4
S113057067BD60910A0170910B0180910C0190910B
S11305800D010E94D00368BD6091120170911301A6
S113059080911401909115010E94D00370938900F9
S11305A06093880060910E0170910F018091100199
S11305B0909111010E94D00370938B0060938A0084
S11305C0FF91EF91BF91AF919F918F917F916F9127
S11305D05F914F913F912F910F900FBE0F901F90FD
S11305E018955058BB27AA270E9409030C945A0453
S11305F00E944C0438F00E94530420F039F49F3FC9
S113060019F426F40C9449040EF4E095E7FB0C94D9
S11306104304E92F0E946B0458F3BA176207730767
S11306208407950720F079F4A6F50C948D040EF454
S1130630E0950B2EBA2FA02D0B01B90190010C01EE
S1130640CA01A0011124FF27591B99F0593F50F406
S1130650503E68F11A16F040A22F232F342F44275E
S1130660585FF3CF469537952795A795F040539556
S1130670C9F77EF41F16BA0B620B730B840BBAF026
S11306809150A1F0FF0FBB1F661F771F881FC2F791
S11306900EC0BA0F621F731F841F48F487957795A5
S11306A06795B795F7959E3F08F0B0CF9395880F5F
S11306B008F09927EE0F9795879508950E94720385
S11306C00C945A040E94530458F00E944C0440F0C5
S11306D029F45F3F29F00C94430451110C948E04C7
S11306E00C9449040E946B0468F39923B1F35523D5
S11306F091F3951B550BBB27AA2762177307840731
S113070038F09F5F5F4F220F331F441FAA1FA9F3C6
S113071035D00E2E3AF0E0E832D091505040E695B4
S1130720001CCAF72BD0FE2F29D0660F771F881F15
S1130730BB1F261737074807AB07B0E809F0BB0B08
S1130740802DBF01FF2793585F4F3AF09E3F51051C
S113075078F00C9443040C948E045F3FE4F3983EC9
S1130760D4F3869577956795B795F7959F5FC9F705
S1130770880F911D9695879597F90895E1E0660F86
S1130780771F881FBB1F621773078407BA0720F0FF
S1130790621B730B840BBA0BEE1F88F7E095089568
S11307A00E94D7036894B1110C948E0408950E949A
S11307B0730488F09F5798F0B92F9927B751B0F078
S11307C0E1F0660F771F881F991F1AF0BA95C9F7D1
S11307D014C0B13091F00E948D04B1E008950C94DE
S11307E08D04672F782F8827B85F39F0B93FCCF391
S11307F0869577956795B395D9F73EF4909580954E
S1130800709561957F4F8F4F9F4F0895E89409C06D
S113081097FB3EF490958095709561957F4F8F4F2F
S11308209F4F9923A9F0F92F96E9BB279395F69545
S1130830879577956795B795F111F8CFFAF4BB0FC3
S113084011F460FF1BC06F5F7F4F8F4F9F4F16C027
S1130850882311F096E911C0772321F09EE8872FB1
S1130860762F05C0662371F096E8862F70E060E06D
S11308702AF09A95660F771F881FDAF7880F9695E6
S1130880879597F9089597F99F6780E870E060E08D
S113089008959FEF80EC089500240A941616170615
S11308A018060906089500240A941216130614065D
S11308B005060895092E0394000C11F4882352F0C0
S11308C0BB0F40F4BF2B11F460FF04C06F5F7F4F78
S11308D08F4F9F4F089557FD9058440F551F59F05F
S11308E05F3F71F04795880F97FB991F61F09F3F19
S11308F079F087950895121613061406551FF2CF42
S11309004695F1DF08C0161617061806991FF1CF91
S113091086957105610508940895E894BB276627B8
S11309207727CB0197F908950E94A7040C945A04E1
S11309300E944C0438F00E94530420F0952311F0D7
S11309400C9443040C94490411240C948E040E94C6
S11309506B0470F3959FC1F3950F50E0551F629F90
S1130960F001729FBB27F00DB11D639FAA27F00D04
S1130970B11DAA1F649F6627B00DA11D661F829F2B
S11309802227B00DA11D621F739FB00DA11D621F10
S1130990839FA00D611D221F749F3327A00D611D2D
S11309A0231F849F600D211D822F762F6A2F11240F
S11309B09F5750409AF0F1F088234AF0EE0FFF1F42
S11309C0BB1F661F771F881F91505040A9F79E3F99
S11309D0510580F00C9443040C948E045F3FE4F3BF
S11309E0983ED4F3869577956795B795F795E795EF
S11309F09F5FC1F7FE2B880F911D9695879597F9F8
S1130A0008959F930E940B050F9007FCEE5F0C94D2
S1130A1034050C9449040E947304D8F3E894E0E08C
S1130A20BB279F57F0F02AED3FE049EC06C0EE0FDC
S1130A30BB0F661F771F881F28F0B23A620773073F
S1130A40840728F0B25A620B730B840BE3959A95D2
S1130A5072F7803830F49A95BB0F661F771F881F92
S1130A60D2F790480C944A05EF93E0FF07C0A2EA3E
S1130A702AED3FE049EC5FEB0E9409030E945A040F
S1130A800F90039401FC9058E8E6F0E00C945605AE
S1130A909F3F31F0915020F4879577956795B795EE
S1130AA0880F911D9695879597F908959F938F9335
S1130AB07F936F93FF93EF939B01AC010E94940487
S1130AC0EF91FF910E946A052F913F914F915F91A1
S1130AD00C949404DF93CF931F930F93FF92EF92A0
S1130AE0DF927B018C01689406C0DA2EEF010E942C
S1130AF0A704FE01E894A59125913591459155915E
S1130B00A6F3EF010E940903FE019701A801DA94FC
S1130B1069F7DF90EF90FF900F911F91CF91DF91D4
S1090B200895F894FFCFD4
S1050B260100C8
S9030000FC
