S00F00004D7075363035302E7372656318
S11300000C9469000C9486000C9486000C94860071
S11300100C9486000C9486000C9486000C94860044
S11300200C9486000C9486000C9486000C94860034
S11300300C9486000C9486000C9486000C94860024
S11300400C9486080C9486000C94520B0C947D0B33
S11300500C9486000C9486000C9486000C94860004
S11300600C9486000C948600036EDB363D9A9999B5
S1130070993DABAAAA2A3E000000803F084AD73B1C
S11300803BCE016E84BCBFFDC12F3D6C74319ABD63
S113009056833DDA3D00C77F11BED9E4BB4C3E9187
S11300A06BAAAABE000000803F072C7AA5BA6CC5D3
S11300B090DA3B9365FC8BBC53F810FD3C5692835D
S11300C04DBD879D3AB63DCBC9BF5BBE73DA0FC940
S11300D03F0011241FBECFEFD4E0DEBFCDBF11E03F
S11300E0A0E0B1E0E2E5FEE102C005900D92A4308B
S11300F0B107D9F721E0A4E0B1E001C01D92AF3609
S1130100B207E1F70E9488000C94270F0C940000BA
S1130110CF93DF93CDB7DEB76C970FB6F894DEBFFD
S11301200FBECDBF80E090E0A0E8BFE389839A834F
S1130130AB83BC831D821E821F82188619861A8691
S11301401B861C861D861E861F86188A198A1A8A93
S11301501B8A1C8A1D8A1E8A1F8A188E198E1A8E63
S11301601B8E1C8E80E190E00E94A70B78940E9465
S113017061022FEF80E792E0215080409040E1F748
S113018000C000009E01235F3F4FAE01475F5F4FF9
S1130190BE016B5F7F4FCE0101960E94AA08AE019B
S11301A0475E5F4FBE016B5E7F4FCE0141960E945A
S11301B0E7088FE39CE90197F1F700C0000089810B
S11301C00E94C00B8A810E94C00B8B810E94C00BCD
S11301D08C810E94C00B8D810E94C00B8E810E9475
S11301E0C00B8F810E94C00B88850E94C00B89853B
S11301F00E94C00B8A850E94C00B8B850E94C00B95
S11302008C850E94C00B8D850E94C00B8E850E9438
S1130210C00B8F850E94C00B88890E94C00B8989FE
S11302200E94C00B8A890E94C00B8B890E94C00B5C
S11302308C890E94C00B8D890E94C00B8E890E94FC
S1130240C00B8F890E94C00B888D0E94C00B898DC2
S11302500E94C00B8A8D0E94C00B8B8D0E94C00B24
S11302608C8D0E94C00B8AE00E94C00B8BCFAF9292
S1130270BF92DF92EF92FF920F931F93CF93DF937E
S11302806623B9F1C52FD42FD62E182F80ED0E94E6
S1130290A70A812F0E94FD0A83E08A95F1F70000E6
S11302A081ED0E94A70A0D2F1C2FEE24EA94ED0C79
S11302B0F12CEFEFEE1AFE0AC0E0D0E0AD2CB12C29
S11302C0F1E0AF1AB108CA15DB0529F40E94380B16
S11302D0F801808304C00E941E0BF80180832196DC
S11302E00F5F1F4FCE15DF0571F7CD2D0E94ED0A6C
S11302F001C0C0E08C2FDF91CF911F910F91FF902F
S1130300EF90DF90BF90AF900895AB0161E00E9441
S113031037010895EF92FF920F931F93CF93DF93CA
S11303206623D1F07A01162FC82F80ED0E94A70A08
S11303308C2F0E94FD0AE7016FEF610F062F10E07A
S11303400F5F1F4F0E0D1F1D89910E94FD0AC017DC
S1130350D107D1F70E94ED0ADF91CF911F910F9140
S1130360FF90EF900895CF93DF931F92CDB7DEB740
S11303706983AE014F5F5F4F61E00E948A010F9075
S1130380DF91CF910895FF920F931F93CF93DF9343
S11303901F92CDB7DEB7F62E8A01BE016F5F7F4F85
S11303A00E94850121E030E002C0220F331FFA943D
S11303B0E2F799812923F80120830F90DF91CF91EF
S11303C01F910F91FF900895EF92FF920F931F9347
S11303D0CF93DF931F92CDB7DEB7442389F1F22E7A
S11303E0142F062FE82E1982BE016F5F7F4F0E94E3
S11303F08501882329F1402F50E0411B51094F5FAB
S11304005F4F81E090E002C0880F991F1A95E2F7D0
S11304100197042E02C0880F991F0A94E2F72F2D2A
S113042030E002C0220F331F4A95E2F7682F60952F
S1130430998169238223682B69838E2D0E94B301DD
S11304400F90DF91CF911F910F91FF90EF9008953E
S1130450FF920F931F93CF93DF931F92CDB7DEB715
S1130460182F062FF42EBE016F5F7F4F0E94850167
S1130470FF2059F021E030E0B90102C0660F771F78
S11304800A95E2F78981682B0BC021E030E0B901BD
S113049002C0660F771F0A95E2F760959981692378
S11304A06983812F0E94B3010F90DF91CF911F9137
S11304B00F91FF90089540E066E08BE60E942802C9
S11304C008950E94A10A83E08A95F1F7000087EA63
S11304D091E60197F1F700C000000E945B0283ECF3
S11304E099E00197F1F700C0000021E043E062E0E9
S11304F08BE60E94E40123E043E062E08AE10E948B
S1130500E40164E089E10E94B30123E042E064E095
S11305108BE10E94E40120E042E064E08CE10E946F
S1130520E40185B5856085BDEEE6F0E080818160FB
S1130530808308954F925F926F927F928F929F92E1
S1130540AF92BF92CF92DF92EF92FF920F931F93DD
S1130550CF93DF93CDB7DEB7A4970FB6F894DEBF81
S11305600FBECDBF6D877E878F87988B298B3A8B83
S11305704B8B5C8BED8AFE8A0F8B188F20E030E06A
S1130580A901C601B5010E94CF0C811117C020E05A
S113059030E0A9016FA978AD89AD9AAD0E94CF0C66
S11305A081110CC020E030E0A9016BAD7CAD8DADB4
S11305B09EAD0E94CF0C882309F41AC2A6019501AE
S11305C0C601B5010E945B0E2B013C012FA938AD79
S11305D049AD5AADCA01B9010E945B0E69837A83A1
S11305E08B839C839B01AC01C301B2010E94D60B97
S11305F06D8F7E8F8F8F98A32BAD3CAD4DAD5EADCF
S1130600CA01B9010E945B0E698F7A8F8B8F9C8F10
S113061029813A814B815C81C301B2010E94D60BCE
S11306202B013C01298D3A8D4B8D5C8DC301B201A8
S11306300E94D60B0E94CE0E2B013C019B01AC0103
S1130640C601B5010E94D40C69837A838B839C8391
S1130650A30192016FA978AD89AD9AAD0E94D40C23
S11306606D837E838F839887A30192016BAD7CADEC
S11306708DAD9EAD0E94D40C69877A878B879C8749
S1130680609118017091190180911A0190911B01D8
S113069020911001309111014091120150911301E8
S11306A08090000190900101A0900201B09003019C
S11306B0409014015090150160901601709017013C
S11306C00E945B0E6B017C01A3019201C501B40180
S11306D00E945B0E9B01AC01C701B6010E94D50BC1
S11306E0698F7A8F8B8F9C8F6091000170910101CB
S11306F08091020190910301209118013091190118
S113070040911A0150911B018090140190901501A1
S1130710A0901601B0901701409010015090110163
S113072060901201709013010E945B0E6B017C01BA
S1130730A3019201C501B4010E945B0E9B01AC01AF
S1130740C701B6010E94D60B6D8F7E8F8F8F98A341
S11307506091000170910101809102019091030167
S11307602091000130910101409102015091030157
S11307708090100190901101A0901201B09013018B
S1130780409010015090110160901201709013017B
S11307900E945B0E20E030E040E05FE30E94D50B56
S11307A06B017C01A3019201C501B4010E945B0E9F
S11307B09B01AC01C701B6010E94D60B6B017C0101
S11307C09B01AC016D817E818F8198850E945B0EB7
S11307D04B015C012D8D3E8D4F8D58A169857A8525
S11307E08B859C850E945B0E9B01AC01C501B40105
S11307F00E94D50B69A37AA38BA39CA3298D3A8D60
S11308004B8D5C8D69857A858B859C850E945B0EFA
S11308104B015C01A701960169817A818B819C81DE
S11308200E945B0E9B01AC01C501B4010E94D50B73
S11308302B013C012D8D3E8D4F8D58A169817A810C
S11308408B819C810E945B0E6B017C01298D3A8D0A
S11308504B8D5C8D6D817E818F8198850E945B0EAE
S11308609B01AC01C701B6010E94D50B4B015C0191
S1130870C0900C01D0900D01E0900E01F0900F019A
S11308802DEC3CEC4CE45EE369A17AA18BA19CA124
S11308900E945B0E2AE83BE446E85CE30E945B0EA0
S11308A0A70196010E94D60B60930C0170930D0171
S11308B080930E0190930F01C0900801D09009011C
S11308C0E0900A01F0900B012DEC3CEC4CE45EE36B
S11308D0C301B2010E945B0E2AE83BE446E85CE3F4
S11308E00E945B0EA70196010E94D60B609308013B
S11308F07093090180930A0190930B01C090040145
S1130900D0900501E0900601F09007012DEC3CEC3D
S11309104CE45EE3C501B4010E945B0E2AE83BE4AB
S113092046E85CE30E945B0EA70196010E94D60B89
S1130930609304017093050180930601909307016D
S113094060910C0170910D0180910E0190910F0145
S11309502D853E854F8558890E94D60B6D837E83F5
S11309608F839887609108017091090180910A0131
S113097090910B0129893A894B895C890E94D60B95
S113098069877A878B879C87609104017091050140
S113099080910601909107012D893E894F89588DD8
S11309A00E94D60B6B017C0129A13AA14BA15CA149
S11309B06D817E818F8198850E94D60B6D877E879D
S11309C08F87988BA301920169857A858B859C8595
S11309D00E94D60B698B7A8B8B8B9C8BA50194011F
S11309E0C701B6010E94D60B6D8B7E8B8F8B988FBF
S11309F02AE83BE446E05CE36D857E858F85988933
S1130A000E945B0E6D837E838F8398872AE83BE484
S1130A1046E05CE369897A898B899C890E945B0E34
S1130A2069877A878B879C872AE83BE446E05CE306
S1130A306D897E898F89988D0E945B0E6D877E8774
S1130A408F87988B8091000190910101A091020100
S1130A50B0910301898B9A8BAB8BBC8B809018016E
S1130A6090901901A0901A01B0901B01809114017B
S1130A7090911501A0911601B09117018D8B9E8B59
S1130A80AF8BB88F4090100150901101609012010B
S1130A9070901301C0900001D0900101E090020118
S1130AA0F0900301C501B40190582D813E814F811E
S1130AB058850E945B0E69837A838B839C83298586
S1130AC03A854B855C856D897E898F89988D0E94D6
S1130AD05B0E9B01AC0169817A818B819C810E94B0
S1130AE0D50B69837A838B839C832D853E854F85C3
S1130AF05889C301B2010E945B0E9B01AC0169815C
S1130B007A818B819C810E94D50BA70196010E945A
S1130B10D60B6093000170930101809302019093BE
S1130B2003014090100150901101609012017090E7
S1130B301301C0901801D0901901E0901A01F090AF
S1130B401B012D813E814F81588569897A898B8962
S1130B509C890E945B0E69837A838B839C832D8599
S1130B603E854F8558896D897E898F89988D0E942D
S1130B705B0E9B01AC0169817A818B819C810E940F
S1130B80D60B69837A838B839C8329853A854B852D
S1130B905C85C301B2010E945B0E9B01AC016981BB
S1130BA07A818B819C810E94D50BA70196010E94BA
S1130BB0D60B609318017093190180931A019093D6
S1130BC01B0140901001509011016090120170902F
S1130BD01301C0901401D0901501E0901601F0901B
S1130BE0170129853A854B855C8569897A898B89C2
S1130BF09C890E945B0E69837A838B839C832D85F9
S1130C003E854F855889C501B4010E945B0E9B0146
S1130C10AC0169817A818B819C810E94D50B6983A7
S1130C207A838B839C832D813E814F815885C301B8
S1130C30B2010E945B0E9B01AC0169817A818B81B8
S1130C409C810E94D60BA70196010E94D60B60934B
S1130C501401709315018093160190931701C090AD
S1130C601001D0901101E0901201F09013012D8534
S1130C703E854F85588969897A898B899C890E9428
S1130C805B0E2B013C0129853A854B855C85C501AA
S1130C90B4010E945B0E9B01AC01C301B2010E942E
S1130CA0D60B4B015C012D813E814F8158856D89A6
S1130CB07E898F89988D0E945B0E9B01AC01C501D2
S1130CC0B4010E94D50BA70196010E94D60B609334
S1130CD010017093110180931201909313014090BD
S1130CE00001509001016090020170900301C090D6
S1130CF00001D0900101E0900201F0900301809185
S1130D00180190911901A0911A01B0911B018D83D2
S1130D109E83AF83B8878091180190911901A091A7
S1130D201A01B0911B0189879A87AB87BC87809190
S1130D30140190911501A0911601B09117018D87AE
S1130D409E87AF87B88B8091140190911501A09173
S1130D501601B0911701898B9A8BAB8BBC8B809059
S1130D60100190901101A0901201B0901301809194
S1130D70100190911101A0911201B09113018D8B7A
S1130D809E8BAF8BB88FA7019601C301B2010E945D
S1130D905B0E69837A838B839C8329853A854B8593
S1130DA05C856D817E818F8198850E945B0E9B019D
S1130DB0AC0169817A818B819C810E94D60B698305
S1130DC07A838B839C8329893A894B895C896D85D5
S1130DD07E858F8598890E945B0E9B01AC01698199
S1130DE07A818B819C810E94D60B69837A838B8361
S1130DF09C83A7019601C301B2010E945B0E6B01A3
S1130E007C0129853A854B855C856D817E818F8146
S1130E1098850E945B0E9B01AC01C701B6010E943C
S1130E20D60B6B017C0129893A894B895C896D85D4
S1130E307E858F8598890E945B0E9B01AC01C7015A
S1130E40B6010E94D60B6B017C012D893E894F8926
S1130E50588DC501B4010E945B0E9B01AC01C70112
S1130E60B6010E94D60B0E94CE0E6B017C016091EC
S1130E700001709101018091020190910301A70189
S1130E8096010E94D40C6093000170930101809339
S1130E9002019093030160911801709119018091EE
S1130EA01A0190911B01A70196010E94D40C609332
S1130EB018017093190180931A0190931B0160919A
S1130EC01401709115018091160190911701A701E9
S1130ED096010E94D40C60931401709315018093C1
S1130EE01601909317016091100170911101809186
S1130EF0120190911301A70196010E94D40C6093F2
S1130F001001709311018093120190931301A49620
S1130F100FB6F894DEBF0FBECDBFDF91CF911F9106
S1130F200F91FF90EF90DF90CF90BF90AF909F9084
S1130F308F907F906F905F904F9008954F925F9243
S1130F406F927F928F929F92AF92BF92CF92DF92D5
S1130F50EF92FF920F931F93CF93DF93CDB7DEB73A
S1130F6028970FB6F894DEBF0FBECDBF41E651E01F
S1130F7060E08AE30E94C30180916101811105C090
S1130F8083E08A95F1F70000F1CF41E651E06EE08D
S1130F908BE30E943701E1E6F1E080816181028107
S1130FA09380148185806084718452844384E484B2
S1130FB0F58470E0782B072E000C880B990B0E94A7
S1130FC0480D20E030E040E858E30E945B0E5B01EE
S1130FD06C016F2D70E07E29635E7F4F072E000C3D
S1130FE0880B990B0E94480D23E333E343E851E453
S1130FF00E94D40C24E33AEF4EE85CE30E945B0EBB
S113100069837A838B839C83642D70E0752969508E
S11310107109072E000C880B990B0E94480D23E3DD
S113102033E343E851E40E94D40C24E33AEF4EE85E
S11310305CE30E945B0E6D837E838F839887672DAC
S113104070E07629665D7F4F072E000C880B990BA4
S11310500E94480D23E333E343E851E40E94D40C97
S113106024E33AEF4EE85CE30E945B0E2B013C0163
S1131070682D70E0712B072E000C880B990B0E94D1
S1131080480D20E030E040E858E30E945B0E9F9357
S11310908F937F936F93692D70E0702B072E000C54
S11310A0880B990B0E94480D20E030E040E858E39B
S11310B00E945B0E9F938F937F936F93E980FA80D6
S11310C00B811C812D813E814F815885C301B20162
S11310D00E949A020FB6F894DEBF0FBECDBF2896C9
S11310E00FB6F894DEBF0FBECDBFDF91CF911F9135
S11310F00F91FF90EF90DF90CF90BF90AF909F90B3
S11311008F907F906F905F904F9008951F920F92F1
S11311100FB60F9211242F933F934F935F936F93C6
S11311207F938F939F93AF93BF93EF93FF930E940B
S11311309E07FF91EF91BF91AF919F918F917F9106
S11311406F915F914F913F912F910F900FBE0F9030
S11311501F901895CF92DF92EF92FF92C0900001FA
S1131160D0900101E0900201F0900301FC01C082E3
S1131170D182E282F3828091180190911901A091A9
S11311801A01B0911B01FB0180839183A283B38375
S11311908091140190911501A0911601B09117014D
S11311A0FA0180839183A283B3838091100190918B
S11311B01101A0911201B0911301F901808391836F
S11311C0A283B383FF90EF90DF90CF9008952F9286
S11311D03F924F925F926F927F928F929F92AF92C3
S11311E0BF92CF92DF92EF92FF920F931F93CF9310
S11311F0DF93CDB7DEB762970FB6F894DEBF0FBEAC
S1131200CDBF1C018B015A8B498B609100017091F9
S1131210010180910201909103018090000190905E
S11312200101A0900201B0900301C0901801D09078
S11312301901E0901A01F0901B01209118013091DE
S1131240190140911A0150911B012D833E834F8354
S11312505887209118013091190140911A01509139
S11312601B0129833A834B835C83209114013091C1
S11312701501409116015091170129873A874B8730
S11312805C874090000150900101609002017090D1
S113129003012091100130911101409112015091EC
S11312A013012D873E874F87588B9B01AC010E9409
S11312B0D60BA50194010E945B0E4B015C01A701B2
S11312C09601C701B6010E94D60B2D813E814F8144
S11312D058850E945B0E9B01AC01C501B4010E94BC
S11312E0D60B20E030E040E85FE30E94D50B6B01B1
S11312F07C0129813A814B815C81CA01B9010E9438
S1131300D60B29853A854B855C850E945B0E4B0183
S11313105C01A3019201C301B2010E94D60B2D8589
S11313203E854F8558890E945B0E9B01AC01C50127
S1131330B4010E94D50BA70196010E94700CE989A3
S1131340FA89608371838283938360911801709119
S1131350190180911A0190911B01809010019090C5
S11313601101A0901201B0901301C0900001D0901F
S11313700101E0900201F0900301409014015090AB
S1131380150160901601709017019B01AC010E9439
S1131390D60BA50194010E945B0E4B015C01A701D1
S11313A09601C701B6010E94D60BA30192010E94C7
S11313B05B0E9B01AC01C501B4010E94D60B0E94D7
S11313C0420CDC01CB01B058F80180839183A283E5
S11313D0B3836091000170910101809102019091A9
S11313E003018090000190900101A0900201B0904F
S11313F00301C0901001D0901101E0901201F0900F
S1131400130120911001309111014091120150916A
S113141013012D833E834F8358872091140130910B
S11314201501409116015091170129833A834B838A
S11314305C8320911001309111014091120150916F
S1131440130129873A874B875C87409000015090AD
S11314500101609002017090030120911801309104
S1131460190140911A0150911B012D873E874F8726
S1131470588B9B01AC010E94D60BA50194010E94DC
S11314805B0E4B015C01A7019601C701B6010E94E6
S1131490D60B2D813E814F8158850E945B0E9B01A6
S11314A0AC01C501B4010E94D60B20E030E040E855
S11314B05FE30E94D50B6B017C0129813A814B814A
S11314C05C81CA01B9010E94D60B29853A854B85F6
S11314D05C850E945B0E4B015C01A3019201C30178
S11314E0B2010E94D60B2D853E854F8558890E94F6
S11314F05B0E9B01AC01C501B4010E94D50BA70191
S113150096010E94700CF10160837183828393833E
S113151062960FB6F894DEBF0FBECDBFDF91CF91B8
S11315201F910F91FF90EF90DF90CF90BF90AF90FD
S11315309F908F907F906F905F904F903F902F90EF
S113154008951092B9008CE08093B800089594EA4D
S11315509093BC004FEF50E060E070E0ECEBF0E003
S11315609081992334F04150510961097109C0F700
S113157004C0452B462B472B41F19091B900987F2D
S1131580983011F0903119F58093BB0084E8809372
S1131590BC008FEF90E0A0E0B0E0ECEBF0E0208145
S11315A022232CF00197A109B109C8F704C0892BA3
S11315B08A2B8B2B71F09091B900987F983159F058
S11315C081E0903449F480E0089581E0089581E059
S11315D0089581E0089580E0089584E98093BC0033
S11315E080E090E0ECEBF0E0208124FF05C0019660
S11315F0811521E09207C1F708958093BB0084E828
S11316008093BC008FEF90E0A0E0B0E0ECEBF0E062
S1131610208122232CF00197A109B109C8F704C045
S1131620892B8A2B8B2B41F09091B900987F81E014
S1131630983219F480E0089581E0089584EC809351
S1131640BC008FEF90E0A0E0B0E0ECEBF0E0208194
S113165022232CF00197A109B109C8F704C0892BF2
S11316608A2B8B2B19F08091BB00089580E008959C
S113167084E88093BC008FEF90E0A0E0B0E0ECEB56
S1131680F0E0208122232CF00197A109B109C8F7C9
S113169004C0892B8A2B8B2B19F08091BB000895F1
S11316A080E008951F920F920FB60F9211242F938A
S11316B08F939F93EF93FF938091C0002091C60076
S11316C08871E0911E01EF5FEF7190911D01E917A0
S11316D039F0E0931E01F0E0EF5DFE4F208301C07E
S11316E082E080931C01FF91EF919F918F912F9144
S11316F00F900FBE0F901F9018951F920F920FB668
S11317000F9211248F939F93EF93FF939091200155
S113171080911F01981769F0E0911F01EF5FEF714D
S1131720E0931F01F0E0EF5BFE4F80818093C600E1
S113173005C0E1ECF0E080818F7D8083FF91EF9123
S11317409F918F910F900FBE0F901F90189510923C
S1131750200110921F0110921E0110921D01992365
S113176024F422E02093C0009F779093C5008093D7
S1131770C40088E98093C10086E08093C200089584
S1131780209120012F5F2F7190911F012917E1F300
S1131790E22FF0E0EF5BFE4F808320932001E1EC29
S11317A0F0E080818062808308955058BB27AA2787
S11317B00E94ED0B0C94190E0E940B0E38F00E943F
S11317C0120E20F039F49F3F19F426F40C94CD0D39
S11317D00EF4E095E7FB0C94C70DE92F0E942A0E46
S11317E058F3BA17620773078407950720F079F452
S11317F0A6F50C944C0E0EF4E0950B2EBA2FA02DEA
S11318000B01B90190010C01CA01A0011124FF27A9
S1131810591B99F0593F50F4503E68F11A16F040A4
S1131820A22F232F342F4427585FF3CF46953795A3
S11318302795A795F0405395C9F77EF41F16BA0B68
S1131840620B730B840BBAF09150A1F0FF0FBB1F16
S1131850661F771F881FC2F70EC0BA0F621F731F5F
S1131860841F48F4879577956795B795F7959E3FBC
S113187008F0B0CF9395880F08F09927EE0F97954D
S1131880879508959F939F77EEE389379E0728F401
S1131890E8E6F0E00E94F70D0CC00E94830D90581A
S11318A0A2EA2AED3FE049EC5FE30E94ED0B0E94BF
S11318B0190E0F9007FC905808950E940B0E60F0CB
S11318C080E891E009F49EEF0E94120E28F040E8AF
S11318D051E071F45EEF0CC00C94CD0D0C944C0EE1
S11318E0E92FE0780E942A0E40F3092E052AB1F36D
S11318F0261737074807590738F00E2E07F8E02552
S113190069F0E025E0640AC0EF6307F8009407FA81
S1131910DB01B9019D01DC01CA01AD01EF930E9415
S1131920EB0C0E94190E0E94A00C5F91552339F014
S11319302BED3FE049E450FD49EC0C94D60B08959F
S1131940DF93DD27B92FBF7740E85FE3161617064C
S113195048075B0718F4D92F0E94530E9F938F9367
S11319607F936F930E940E0FECE7F0E00E94D00D7E
S11319700E94190E2F913F914F915F910E946E0E1C
S1131980DD2351F09058A2EA2AED3FE049EC5FE3F1
S1131990D0785D270E94ED0BDF910C94190E0E9404
S11319A0A30D08F481E008950E94E80C0C94190E2C
S11319B00E94120E58F00E940B0E40F029F45F3F73
S11319C029F00C94C70D51110C944D0E0C94CD0DAF
S11319D00E942A0E68F39923B1F3552391F3951BC2
S11319E0550BBB27AA2762177307840738F09F5F3C
S11319F05F4F220F331F441FAA1FA9F335D00E2EA9
S1131A003AF0E0E832D091505040E695001CCAF715
S1131A102BD0FE2F29D0660F771F881FBB1F2617D8
S1131A2037074807AB07B0E809F0BB0B802DBF01AF
S1131A30FF2793585F4F3AF09E3F510578F00C947E
S1131A40C70D0C944D0E5F3FE4F3983ED4F3869596
S1131A5077956795B795F7959F5FC9F7880F911D9F
S1131A609695879597F90895E1E0660F771F881F8B
S1131A70BB1F621773078407BA0720F0621B730B3E
S1131A80840BBA0BEE1F88F7E0950895E89409C01B
S1131A9097FB3EF490958095709561957F4F8F4F9D
S1131AA09F4F9923A9F0F92F96E9BB279395F695B3
S1131AB0879577956795B795F111F8CFFAF4BB0F31
S1131AC011F460FF1BC06F5F7F4F8F4F9F4F16C095
S1131AD0882311F096E911C0772321F09EE8872F1F
S1131AE0762F05C0662371F096E8862F70E060E0DB
S1131AF02AF09A95660F771F881FDAF7880F969554
S1131B00879597F90895DF93CF931F930F938B01D4
S1131B10EC01E9EAF0E00E94D00D0E94190E980150
S1131B20AE018B01EC0160E070E080E89FE30E946D
S1131B30D50B0E94CE0E9801AE010F911F91CF914B
S1131B40DF910C946E0E990F0008550FAA0BE0E874
S1131B50FEEF16161706E807F907C0F0121613066B
S1131B60E407F50798F0621B730B840B950B39F4AB
S1131B700A2661F0232B242B252B21F408950A2611
S1131B8009F4A140A6958FEF811D811D089597F951
S1131B909F6780E870E060E008959FEF80EC08950F
S1131BA0DF93CF931F930F93FF92EF92DF927B010A
S1131BB08C01689406C0DA2EEF010E946E0EFE01BD
S1131BC0E894A5912591359145915591A6F3EF019E
S1131BD00E94ED0BFE019701A801DA9469F7DF90EA
S1131BE0EF90FF900F911F91CF91DF9108959F93F4
S1131BF08F937F936F93FF93EF939B01AC010E94AC
S1131C005B0EEF91FF910E94D00D2F913F914F9168
S1131C105F910C945B0E00240A941616170618069E
S1131C200906089500240A941216130614060506DC
S1131C300895092E0394000C11F4882352F0BB0F6D
S1131C4040F4BF2B11F460FF04C06F5F7F4F8F4FD0
S1131C509F4F089557FD9058440F551F59F05F3F0B
S1131C6071F04795880F97FB991F61F09F3F79F0BA
S1131C7087950895121613061406551FF2CF46953C
S1131C80F1DF08C0161617061806991FF1CF8695BE
S1131C907105610508940895E894BB2766277727A2
S1131CA0CB0197F908959B01AC0160E070E080E8F6
S1131CB09FE30C94D40C0E946E0E0C94190E0E9497
S1131CC00B0E38F00E94120E20F0952311F00C94A4
S1131CD0C70D0C94CD0D11240C944D0E0E942A0EA8
S1131CE070F3959FC1F3950F50E0551F629FF0016B
S1131CF0729FBB27F00DB11D639FAA27F00DB11D84
S1131D00AA1F649F6627B00DA11D661F829F22270C
S1131D10B00DA11D621F739FB00DA11D621F839F93
S1131D20A00D611D221F749F3327A00D611D231F69
S1131D30849F600D211D822F762F6A2F11249F57B7
S1131D4050409AF0F1F088234AF0EE0FFF1FBB1FBA
S1131D50661F771F881F91505040A9F79E3F510579
S1131D6080F00C94C70D0C944D0E5F3FE4F3983E45
S1131D70D4F3869577956795B795F795E7959F5F23
S1131D80C1F7FE2B880F911D9695879597F90895B5
S1131D9019F416F40C94CD0D0C94120F0E94320E0B
S1131DA0B8F39923C9F3B6F39F57550B87FF0E94E5
S1131DB0200F0024A0E640EA90018058569597959C
S1131DC028F4805C660F771F881F20F026173707DA
S1131DD0480730F4621B730B840B202931294A2BEA
S1131DE0A69517940794202531254A2758F7660F9E
S1131DF0771F881F20F026173707480730F4620B37
S1131E00730B840B200D311D411DA09581F7B90181
S1131E10842F9158880F9695879508959B01AC015E
S1131E200C945B0E9F3F31F0915020F48795779589
S1131E306795B795880F911D9695879597F908959D
S1131E4091505040660F771F881FD2F70895F89479
S1051E50FFCFBE
S1071E520000803FC9
S9030000FC
