:100000000C9434000C943E000C943E000C943E0082
:100010000C943E000C943E000C943E000C943E0068
:100020000C943E000C943E000C943E000C943E0058
:100030000C943E000C943E000C943E000C943E0048
:100040000C943E000C943E000C943E000C943E0038
:100050000C943E000C943E000C943E000C943E0028
:100060000C943E000C943E0011241FBECFEFD4E050
:10007000DEBFCDBF0E9440000C945A000C940000DB
:10008000229A8091810088608093810088E09DE3BE
:100090009093890080938800809181008360809391
:1000A000810024E092E0B19BFECF85B1822785B923
:0800B00096BBF9CFF894FFCFD5
:00000001FF
